{
  "contractName": "Agent",
  "abi": [
    {
      "constant": true,
      "inputs": [
        {
          "name": "",
          "type": "uint256"
        }
      ],
      "name": "custodianEnabled",
      "outputs": [
        {
          "name": "",
          "type": "bool"
        }
      ],
      "payable": false,
      "stateMutability": "view",
      "type": "function"
    },
    {
      "constant": true,
      "inputs": [
        {
          "name": "",
          "type": "uint256"
        }
      ],
      "name": "custodians",
      "outputs": [
        {
          "name": "",
          "type": "address"
        }
      ],
      "payable": false,
      "stateMutability": "view",
      "type": "function"
    },
    {
      "constant": true,
      "inputs": [
        {
          "name": "",
          "type": "uint256"
        }
      ],
      "name": "relationships",
      "outputs": [
        {
          "name": "",
          "type": "address"
        }
      ],
      "payable": false,
      "stateMutability": "view",
      "type": "function"
    },
    {
      "constant": true,
      "inputs": [],
      "name": "agentEnabled",
      "outputs": [
        {
          "name": "",
          "type": "bool"
        }
      ],
      "payable": false,
      "stateMutability": "view",
      "type": "function"
    },
    {
      "constant": true,
      "inputs": [],
      "name": "agent",
      "outputs": [
        {
          "name": "",
          "type": "address"
        }
      ],
      "payable": false,
      "stateMutability": "view",
      "type": "function"
    },
    {
      "inputs": [],
      "payable": false,
      "stateMutability": "nonpayable",
      "type": "constructor"
    },
    {
      "constant": false,
      "inputs": [
        {
          "name": "addr",
          "type": "address"
        }
      ],
      "name": "setAgent",
      "outputs": [],
      "payable": false,
      "stateMutability": "nonpayable",
      "type": "function"
    },
    {
      "constant": false,
      "inputs": [
        {
          "name": "enable",
          "type": "bool"
        }
      ],
      "name": "enableAgent",
      "outputs": [],
      "payable": false,
      "stateMutability": "nonpayable",
      "type": "function"
    },
    {
      "constant": false,
      "inputs": [
        {
          "name": "addr",
          "type": "address"
        }
      ],
      "name": "addCustodian",
      "outputs": [],
      "payable": false,
      "stateMutability": "nonpayable",
      "type": "function"
    },
    {
      "constant": false,
      "inputs": [
        {
          "name": "addr",
          "type": "address"
        }
      ],
      "name": "removeCustodian",
      "outputs": [],
      "payable": false,
      "stateMutability": "nonpayable",
      "type": "function"
    },
    {
      "constant": false,
      "inputs": [
        {
          "name": "addr",
          "type": "address"
        },
        {
          "name": "enable",
          "type": "bool"
        }
      ],
      "name": "enableCustodian",
      "outputs": [],
      "payable": false,
      "stateMutability": "nonpayable",
      "type": "function"
    },
    {
      "constant": false,
      "inputs": [
        {
          "name": "r",
          "type": "address"
        }
      ],
      "name": "addRelationship",
      "outputs": [],
      "payable": false,
      "stateMutability": "nonpayable",
      "type": "function"
    },
    {
      "constant": true,
      "inputs": [],
      "name": "getNumRelationships",
      "outputs": [
        {
          "name": "",
          "type": "uint256"
        }
      ],
      "payable": false,
      "stateMutability": "view",
      "type": "function"
    },
    {
      "constant": true,
      "inputs": [],
      "name": "getNumEnabledOwners",
      "outputs": [
        {
          "name": "",
          "type": "uint256"
        }
      ],
      "payable": false,
      "stateMutability": "view",
      "type": "function"
    },
    {
      "constant": true,
      "inputs": [],
      "name": "getNumCustodians",
      "outputs": [
        {
          "name": "",
          "type": "uint256"
        }
      ],
      "payable": false,
      "stateMutability": "view",
      "type": "function"
    }
  ],
  "bytecode": "0x608060405234801561001057600080fd5b50336000806101000a81548173ffffffffffffffffffffffffffffffffffffffff021916908373ffffffffffffffffffffffffffffffffffffffff1602179055506001600060146101000a81548160ff0219169083151502179055506112108061007b6000396000f3006080604052600436106100d0576000357c0100000000000000000000000000000000000000000000000000000000900463ffffffff1680630f12a66a146100d5578063108fd0cc146101185780632299bda61461015d5780632788aa71146101ca5780636ca9677a146101f957806379bda9371461024857806385d95b811461028b57806394aa2718146102ce57806399d29e711461033b578063bcf685ed1461036a578063c23a0d28146103ad578063e968177e146103d8578063f5ff5c7614610403578063faea7b2c1461045a575b600080fd5b3480156100e157600080fd5b50610116600480360381019080803573ffffffffffffffffffffffffffffffffffffffff169060200190929190505050610485565b005b34801561012457600080fd5b5061014360048036038101908080359060200190929190505050610832565b604051808215151515815260200191505060405180910390f35b34801561016957600080fd5b5061018860048036038101908080359060200190929190505050610865565b604051808273ffffffffffffffffffffffffffffffffffffffff1673ffffffffffffffffffffffffffffffffffffffff16815260200191505060405180910390f35b3480156101d657600080fd5b506101f76004803603810190808035151590602001909291905050506108a3565b005b34801561020557600080fd5b50610246600480360381019080803573ffffffffffffffffffffffffffffffffffffffff169060200190929190803515159060200190929190505050610a25565b005b34801561025457600080fd5b50610289600480360381019080803573ffffffffffffffffffffffffffffffffffffffff169060200190929190505050610af5565b005b34801561029757600080fd5b506102cc600480360381019080803573ffffffffffffffffffffffffffffffffffffffff169060200190929190505050610cad565b005b3480156102da57600080fd5b506102f960048036038101908080359060200190929190505050610ead565b604051808273ffffffffffffffffffffffffffffffffffffffff1673ffffffffffffffffffffffffffffffffffffffff16815260200191505060405180910390f35b34801561034757600080fd5b50610350610eeb565b604051808215151515815260200191505060405180910390f35b34801561037657600080fd5b506103ab600480360381019080803573ffffffffffffffffffffffffffffffffffffffff169060200190929190505050610efe565b005b3480156103b957600080fd5b506103c2611090565b6040518082815260200191505060405180910390f35b3480156103e457600080fd5b506103ed61111a565b6040518082815260200191505060405180910390f35b34801561040f57600080fd5b50610418611127565b604051808273ffffffffffffffffffffffffffffffffffffffff1673ffffffffffffffffffffffffffffffffffffffff16815260200191505060405180910390f35b34801561046657600080fd5b5061046f61114c565b6040518082815260200191505060405180910390f35b600080600080600060149054906101000a900460ff1680156104f357506000809054906101000a900473ffffffffffffffffffffffffffffffffffffffff1673ffffffffffffffffffffffffffffffffffffffff163373ffffffffffffffffffffffffffffffffffffffff16145b156104fd57600191505b600090505b6001805490508110156105c95760028181548110151561051e57fe5b90600052602060002090602091828204019190069054906101000a900460ff1680156105ae575060018181548110151561055457fe5b9060005260206000200160009054906101000a900473ffffffffffffffffffffffffffffffffffffffff1673ffffffffffffffffffffffffffffffffffffffff163373ffffffffffffffffffffffffffffffffffffffff16145b156105bc57600191506105c9565b8080600101915050610502565b8115156105d557600080fd5b60009350600092505b60018054905083101561076e5783156106ef5760018381548110151561060057fe5b9060005260206000200160009054906101000a900473ffffffffffffffffffffffffffffffffffffffff16600180850381548110151561063c57fe5b9060005260206000200160006101000a81548173ffffffffffffffffffffffffffffffffffffffff021916908373ffffffffffffffffffffffffffffffffffffffff16021790555060028381548110151561069357fe5b90600052602060002090602091828204019190069054906101000a900460ff166002600185038154811015156106c557fe5b90600052602060002090602091828204019190066101000a81548160ff0219169083151502179055505b8473ffffffffffffffffffffffffffffffffffffffff1660018481548110151561071557fe5b9060005260206000200160009054906101000a900473ffffffffffffffffffffffffffffffffffffffff1673ffffffffffffffffffffffffffffffffffffffff16141561076157600193505b82806001019350506105de565b600260016002805490500381548110151561078557fe5b90600052602060002090602091828204019190066101000a81549060ff02191690556001808080549050038154811015156107bc57fe5b9060005260206000200160006101000a81549073ffffffffffffffffffffffffffffffffffffffff021916905560028054809190600190036107fe9190611159565b5060018054809190600190036108149190611193565b50600061081f611090565b11151561082b57600080fd5b5050505050565b60028181548110151561084157fe5b9060005260206000209060209182820401919006915054906101000a900460ff1681565b60018181548110151561087457fe5b906000526020600020016000915054906101000a900473ffffffffffffffffffffffffffffffffffffffff1681565b600080600060149054906101000a900460ff16801561090e57506000809054906101000a900473ffffffffffffffffffffffffffffffffffffffff1673ffffffffffffffffffffffffffffffffffffffff163373ffffffffffffffffffffffffffffffffffffffff16145b1561091857600191505b600090505b6001805490508110156109e45760028181548110151561093957fe5b90600052602060002090602091828204019190069054906101000a900460ff1680156109c9575060018181548110151561096f57fe5b9060005260206000200160009054906101000a900473ffffffffffffffffffffffffffffffffffffffff1673ffffffffffffffffffffffffffffffffffffffff163373ffffffffffffffffffffffffffffffffffffffff16145b156109d757600191506109e4565b808060010191505061091d565b8115156109f057600080fd5b82600060146101000a81548160ff0219169083151502179055506000610a14611090565b111515610a2057600080fd5b505050565b60008090505b600180549050811015610af0578273ffffffffffffffffffffffffffffffffffffffff16600182815481101515610a5e57fe5b9060005260206000200160009054906101000a900473ffffffffffffffffffffffffffffffffffffffff1673ffffffffffffffffffffffffffffffffffffffff161415610ae35781600282815481101515610ab557fe5b90600052602060002090602091828204019190066101000a81548160ff021916908315150217905550610af0565b8080600101915050610a2b565b505050565b600080600060149054906101000a900460ff168015610b6057506000809054906101000a900473ffffffffffffffffffffffffffffffffffffffff1673ffffffffffffffffffffffffffffffffffffffff163373ffffffffffffffffffffffffffffffffffffffff16145b15610b6a57600191505b600090505b600180549050811015610c3657600281815481101515610b8b57fe5b90600052602060002090602091828204019190069054906101000a900460ff168015610c1b5750600181815481101515610bc157fe5b9060005260206000200160009054906101000a900473ffffffffffffffffffffffffffffffffffffffff1673ffffffffffffffffffffffffffffffffffffffff163373ffffffffffffffffffffffffffffffffffffffff16145b15610c295760019150610c36565b8080600101915050610b6f565b811515610c4257600080fd5b60038390806001815401808255809150509060018203906000526020600020016000909192909190916101000a81548173ffffffffffffffffffffffffffffffffffffffff021916908373ffffffffffffffffffffffffffffffffffffffff16021790555050505050565b600080600060149054906101000a900460ff168015610d1857506000809054906101000a900473ffffffffffffffffffffffffffffffffffffffff1673ffffffffffffffffffffffffffffffffffffffff163373ffffffffffffffffffffffffffffffffffffffff16145b15610d2257600191505b600090505b600180549050811015610dee57600281815481101515610d4357fe5b90600052602060002090602091828204019190069054906101000a900460ff168015610dd35750600181815481101515610d7957fe5b9060005260206000200160009054906101000a900473ffffffffffffffffffffffffffffffffffffffff1673ffffffffffffffffffffffffffffffffffffffff163373ffffffffffffffffffffffffffffffffffffffff16145b15610de15760019150610dee565b8080600101915050610d27565b811515610dfa57600080fd5b60018390806001815401808255809150509060018203906000526020600020016000909192909190916101000a81548173ffffffffffffffffffffffffffffffffffffffff021916908373ffffffffffffffffffffffffffffffffffffffff1602179055505060026001908060018154018082558091505090600182039060005260206000209060209182820401919006909192909190916101000a81548160ff02191690831515021790555050505050565b600381815481101515610ebc57fe5b906000526020600020016000915054906101000a900473ffffffffffffffffffffffffffffffffffffffff1681565b600060149054906101000a900460ff1681565b600080600060149054906101000a900460ff168015610f6957506000809054906101000a900473ffffffffffffffffffffffffffffffffffffffff1673ffffffffffffffffffffffffffffffffffffffff163373ffffffffffffffffffffffffffffffffffffffff16145b15610f7357600191505b600090505b60018054905081101561103f57600281815481101515610f9457fe5b90600052602060002090602091828204019190069054906101000a900460ff1680156110245750600181815481101515610fca57fe5b9060005260206000200160009054906101000a900473ffffffffffffffffffffffffffffffffffffffff1673ffffffffffffffffffffffffffffffffffffffff163373ffffffffffffffffffffffffffffffffffffffff16145b15611032576001915061103f565b8080600101915050610f78565b81151561104b57600080fd5b826000806101000a81548173ffffffffffffffffffffffffffffffffffffffff021916908373ffffffffffffffffffffffffffffffffffffffff160217905550505050565b6000806000809150600060149054906101000a900460ff16156110b65781806001019250505b600090505b600280549050811015611112576002818154811015156110d757fe5b90600052602060002090602091828204019190069054906101000a900460ff16156111055781806001019250505b80806001019150506110bb565b819250505090565b6000600380549050905090565b6000809054906101000a900473ffffffffffffffffffffffffffffffffffffffff1681565b6000600180549050905090565b81548183558181111561118e57601f016020900481601f0160209004836000526020600020918201910161118d91906111bf565b5b505050565b8154818355818111156111ba578183600052602060002091820191016111b991906111bf565b5b505050565b6111e191905b808211156111dd5760008160009055506001016111c5565b5090565b905600a165627a7a72305820a187bce7b0095c67dd6b2b6e87a1098321b84cc99e6865456f931f372f3fb7a00029",
  "source": "pragma solidity ^0.4.0;\r\n\r\ncontract Agent {\r\n    address public agent;\r\n    bool public agentEnabled;\r\n    address[] public custodians;\r\n    bool[] public custodianEnabled;\r\n    address[] public relationships;\r\n\r\n    modifier isOwner() {\r\n        bool enable;\r\n        if (agentEnabled && msg.sender == agent) enable = true;\r\n        for (uint256 i = 0; i < custodians.length; i++) {\r\n            if (custodianEnabled[i] && msg.sender == custodians[i]) {\r\n                enable = true;\r\n                break;\r\n            }\r\n        }\r\n        if (!enable) revert();\r\n        _;\r\n    }\r\n\r\n    constructor() public {\r\n        agent = msg.sender;\r\n        agentEnabled = true;\r\n    }\r\n\r\n    function setAgent(address addr) public isOwner {\r\n        agent = addr;\r\n    }\r\n\r\n    function enableAgent(bool enable) public isOwner {\r\n        agentEnabled = enable;\r\n        require(getNumEnabledOwners() > 0);\r\n    }\r\n\r\n    function addCustodian(address addr) public isOwner {\r\n        custodians.push(addr);\r\n        custodianEnabled.push(true);\r\n    }\r\n\r\n    function removeCustodian(address addr) public isOwner {\r\n        bool overwrite = false;\r\n        for (uint256 i = 0; i < custodians.length; i++) {\r\n            if (overwrite) {\r\n                custodians[i - 1] = custodians[i];\r\n                custodianEnabled[i - 1] = custodianEnabled[i];\r\n            }\r\n\r\n            if (custodians[i] == addr) {\r\n                overwrite = true;\r\n            }\r\n        }\r\n\r\n        //decrement arrays by 1\r\n        //delete last element of both arrays.\r\n        delete custodianEnabled[custodianEnabled.length - 1];\r\n        delete custodians[custodians.length - 1];\r\n        custodianEnabled.length--;\r\n        custodians.length--;\r\n        require(getNumEnabledOwners() > 0);\r\n    }\r\n\r\n    function enableCustodian(address addr, bool enable) public {\r\n        for (uint256 i = 0; i < custodians.length; i++) {\r\n            if (custodians[i] == addr) {\r\n                custodianEnabled[i] = enable;\r\n                break;\r\n            }\r\n        }\r\n    }\r\n\r\n    function addRelationship(address r) public isOwner {\r\n        relationships.push(r);\r\n    }\r\n\r\n    function getNumRelationships() public constant returns (uint256) {\r\n        return relationships.length;\r\n    }\r\n\r\n    function getNumEnabledOwners() public constant returns (uint256) {\r\n        uint256 numEnabled = 0;\r\n        if (agentEnabled) numEnabled++;\r\n        for (uint256 i = 0; i < custodianEnabled.length; i++) {\r\n            if (custodianEnabled[i]) {\r\n                numEnabled++;\r\n            }\r\n        }\r\n        return numEnabled;\r\n    }\r\n\r\n    function getNumCustodians() public constant returns (uint256) {\r\n        return custodians.length;\r\n    }\r\n}\r\n",
  "sourcePath": "C:\\Projects\\Programming\\2021\\blockchain-medical-record\\src\\contracts\\Agent.sol",
  "compiler": {
    "name": "solc",
    "version": "0.4.26+commit.4563c3fc.Emscripten.clang"
  },
  "schemaVersion": "3.4.6",
  "updatedAt": "2022-03-29T05:22:15.285Z",
  "networkType": "ethereum",
  "devdoc": {
    "methods": {}
  },
  "userdoc": {
    "methods": {}
  }
}