{
  "contractName": "AgentRegistry",
  "abi": [
    {
      "constant": true,
      "inputs": [
        {
          "name": "",
          "type": "address"
        }
      ],
      "name": "isProspective",
      "outputs": [
        {
          "name": "",
          "type": "bool"
        }
      ],
      "payable": false,
      "stateMutability": "view",
      "type": "function"
    },
    {
      "constant": true,
      "inputs": [
        {
          "name": "",
          "type": "address"
        }
      ],
      "name": "isKicked",
      "outputs": [
        {
          "name": "",
          "type": "bool"
        }
      ],
      "payable": false,
      "stateMutability": "view",
      "type": "function"
    },
    {
      "constant": true,
      "inputs": [
        {
          "name": "",
          "type": "address"
        }
      ],
      "name": "isSigner",
      "outputs": [
        {
          "name": "",
          "type": "bool"
        }
      ],
      "payable": false,
      "stateMutability": "view",
      "type": "function"
    },
    {
      "constant": true,
      "inputs": [
        {
          "name": "",
          "type": "address"
        }
      ],
      "name": "agentFromContract",
      "outputs": [
        {
          "name": "",
          "type": "address"
        }
      ],
      "payable": false,
      "stateMutability": "view",
      "type": "function"
    },
    {
      "inputs": [
        {
          "name": "name",
          "type": "string"
        },
        {
          "name": "contractAddr",
          "type": "address"
        },
        {
          "name": "host",
          "type": "string"
        }
      ],
      "payable": false,
      "stateMutability": "nonpayable",
      "type": "constructor"
    },
    {
      "anonymous": false,
      "inputs": [
        {
          "indexed": true,
          "name": "addr",
          "type": "address"
        }
      ],
      "name": "AddSigner",
      "type": "event"
    },
    {
      "anonymous": false,
      "inputs": [
        {
          "indexed": true,
          "name": "addr",
          "type": "address"
        }
      ],
      "name": "RemoveSigner",
      "type": "event"
    },
    {
      "constant": false,
      "inputs": [
        {
          "name": "name",
          "type": "string"
        }
      ],
      "name": "setAgentName",
      "outputs": [],
      "payable": false,
      "stateMutability": "nonpayable",
      "type": "function"
    },
    {
      "constant": false,
      "inputs": [
        {
          "name": "contractAddr",
          "type": "address"
        }
      ],
      "name": "setAgentContractAddr",
      "outputs": [],
      "payable": false,
      "stateMutability": "nonpayable",
      "type": "function"
    },
    {
      "constant": false,
      "inputs": [
        {
          "name": "host",
          "type": "string"
        }
      ],
      "name": "setAgentHost",
      "outputs": [],
      "payable": false,
      "stateMutability": "nonpayable",
      "type": "function"
    },
    {
      "constant": false,
      "inputs": [
        {
          "name": "name",
          "type": "string"
        }
      ],
      "name": "propose",
      "outputs": [],
      "payable": false,
      "stateMutability": "nonpayable",
      "type": "function"
    },
    {
      "constant": false,
      "inputs": [
        {
          "name": "rip",
          "type": "address"
        }
      ],
      "name": "kick",
      "outputs": [],
      "payable": false,
      "stateMutability": "nonpayable",
      "type": "function"
    },
    {
      "constant": false,
      "inputs": [
        {
          "name": "prospective",
          "type": "address"
        }
      ],
      "name": "rescind",
      "outputs": [],
      "payable": false,
      "stateMutability": "nonpayable",
      "type": "function"
    },
    {
      "constant": false,
      "inputs": [
        {
          "name": "prospective",
          "type": "address"
        },
        {
          "name": "value",
          "type": "bool"
        }
      ],
      "name": "vote",
      "outputs": [],
      "payable": false,
      "stateMutability": "nonpayable",
      "type": "function"
    },
    {
      "constant": true,
      "inputs": [
        {
          "name": "name",
          "type": "string"
        }
      ],
      "name": "getAgentByName",
      "outputs": [
        {
          "name": "",
          "type": "address"
        }
      ],
      "payable": false,
      "stateMutability": "view",
      "type": "function"
    },
    {
      "constant": true,
      "inputs": [
        {
          "name": "addr",
          "type": "address"
        }
      ],
      "name": "getAgentName",
      "outputs": [
        {
          "name": "",
          "type": "string"
        }
      ],
      "payable": false,
      "stateMutability": "view",
      "type": "function"
    },
    {
      "constant": true,
      "inputs": [
        {
          "name": "addr",
          "type": "address"
        }
      ],
      "name": "getAgentContractAddr",
      "outputs": [
        {
          "name": "",
          "type": "address"
        }
      ],
      "payable": false,
      "stateMutability": "view",
      "type": "function"
    },
    {
      "constant": true,
      "inputs": [
        {
          "name": "addr",
          "type": "address"
        }
      ],
      "name": "getAgentHost",
      "outputs": [
        {
          "name": "",
          "type": "string"
        }
      ],
      "payable": false,
      "stateMutability": "view",
      "type": "function"
    },
    {
      "constant": true,
      "inputs": [],
      "name": "getNumSigners",
      "outputs": [
        {
          "name": "",
          "type": "uint256"
        }
      ],
      "payable": false,
      "stateMutability": "view",
      "type": "function"
    },
    {
      "constant": true,
      "inputs": [
        {
          "name": "idx",
          "type": "uint256"
        }
      ],
      "name": "getSigner",
      "outputs": [
        {
          "name": "",
          "type": "address"
        }
      ],
      "payable": false,
      "stateMutability": "view",
      "type": "function"
    },
    {
      "constant": true,
      "inputs": [
        {
          "name": "prospective",
          "type": "address"
        }
      ],
      "name": "getNumVoters",
      "outputs": [
        {
          "name": "",
          "type": "uint256"
        }
      ],
      "payable": false,
      "stateMutability": "view",
      "type": "function"
    },
    {
      "constant": true,
      "inputs": [
        {
          "name": "prospective",
          "type": "address"
        },
        {
          "name": "idx",
          "type": "uint256"
        }
      ],
      "name": "getVoter",
      "outputs": [
        {
          "name": "",
          "type": "address"
        }
      ],
      "payable": false,
      "stateMutability": "view",
      "type": "function"
    },
    {
      "constant": true,
      "inputs": [
        {
          "name": "prospective",
          "type": "address"
        },
        {
          "name": "signer",
          "type": "address"
        }
      ],
      "name": "getVoteInfo",
      "outputs": [
        {
          "name": "",
          "type": "bool"
        }
      ],
      "payable": false,
      "stateMutability": "view",
      "type": "function"
    },
    {
      "constant": true,
      "inputs": [
        {
          "name": "prospective",
          "type": "address"
        }
      ],
      "name": "getNumYayVotes",
      "outputs": [
        {
          "name": "",
          "type": "uint256"
        }
      ],
      "payable": false,
      "stateMutability": "view",
      "type": "function"
    },
    {
      "constant": true,
      "inputs": [],
      "name": "getNumProspectives",
      "outputs": [
        {
          "name": "",
          "type": "uint256"
        }
      ],
      "payable": false,
      "stateMutability": "view",
      "type": "function"
    },
    {
      "constant": true,
      "inputs": [
        {
          "name": "idx",
          "type": "uint256"
        }
      ],
      "name": "getProspective",
      "outputs": [
        {
          "name": "",
          "type": "address"
        }
      ],
      "payable": false,
      "stateMutability": "view",
      "type": "function"
    },
    {
      "constant": true,
      "inputs": [],
      "name": "getNumKicked",
      "outputs": [
        {
          "name": "",
          "type": "uint256"
        }
      ],
      "payable": false,
      "stateMutability": "view",
      "type": "function"
    },
    {
      "constant": true,
      "inputs": [
        {
          "name": "idx",
          "type": "uint256"
        }
      ],
      "name": "getKicked",
      "outputs": [
        {
          "name": "",
          "type": "address"
        }
      ],
      "payable": false,
      "stateMutability": "view",
      "type": "function"
    },
    {
      "constant": true,
      "inputs": [
        {
          "name": "prospective",
          "type": "address"
        }
      ],
      "name": "getProposer",
      "outputs": [
        {
          "name": "",
          "type": "address"
        }
      ],
      "payable": false,
      "stateMutability": "view",
      "type": "function"
    }
  ],
  "bytecode": "0x60806040523480156200001157600080fd5b506040516200323e3803806200323e83398101806040528101908080518201929190602001805190602001909291908051820192919050505060033390806001815401808255809150509060018203906000526020600020016000909192909190916101000a81548173ffffffffffffffffffffffffffffffffffffffff021916908373ffffffffffffffffffffffffffffffffffffffff160217905550506060604051908101604052808481526020018373ffffffffffffffffffffffffffffffffffffffff168152602001828152506000803373ffffffffffffffffffffffffffffffffffffffff1673ffffffffffffffffffffffffffffffffffffffff16815260200190815260200160002060008201518160000190805190602001906200013e92919062000333565b5060208201518160010160006101000a81548173ffffffffffffffffffffffffffffffffffffffff021916908373ffffffffffffffffffffffffffffffffffffffff1602179055506040820151816002019080519060200190620001a492919062000333565b50905050336001846040518082805190602001908083835b602083101515620001e35780518252602082019150602081019050602083039250620001bc565b6001836020036101000a038019825116818451168082178552505050505050905001915050908152602001604051809103902060006101000a81548173ffffffffffffffffffffffffffffffffffffffff021916908373ffffffffffffffffffffffffffffffffffffffff16021790555033600260008473ffffffffffffffffffffffffffffffffffffffff1673ffffffffffffffffffffffffffffffffffffffff16815260200190815260200160002060006101000a81548173ffffffffffffffffffffffffffffffffffffffff021916908373ffffffffffffffffffffffffffffffffffffffff1602179055506001600460003373ffffffffffffffffffffffffffffffffffffffff1673ffffffffffffffffffffffffffffffffffffffff16815260200190815260200160002060006101000a81548160ff021916908315150217905550505050620003e2565b828054600181600116156101000203166002900490600052602060002090601f016020900481019282601f106200037657805160ff1916838001178555620003a7565b82800160010185558215620003a7579182015b82811115620003a657825182559160200191906001019062000389565b5b509050620003b69190620003ba565b5090565b620003df91905b80821115620003db576000816000905550600101620003c1565b5090565b90565b612e4c80620003f26000396000f300608060405260043610610154576000357c0100000000000000000000000000000000000000000000000000000000900463ffffffff16806309475e49146101595780630c99e458146102155780631758d62b146102705780633ffefe4e146102d95780634e2bd9ce1461034657806351a3d71a1461038957806352dca174146103f6578063563abf65146104215780635e9196141461044c578063644c36681461048f5780636a9cea531461050a5780636e5e865f146105775780637c8160a5146105fa5780637df73e27146106555780637ffe3a65146106b0578063851a974c1461070757806396c551751461078a578063aa98df39146107cd578063b0034f0f14610836578063bd041c4d146108df578063c60623921461092e578063cbd69b46146109ea578063d453f9e514610a41578063d4dc4a4b14610ace578063d947a1c814610b51578063f889af0514610b7c575b600080fd5b34801561016557600080fd5b5061019a600480360381019080803573ffffffffffffffffffffffffffffffffffffffff169060200190929190505050610be5565b6040518080602001828103825283818151815260200191508051906020019080838360005b838110156101da5780820151818401526020810190506101bf565b50505050905090810190601f1680156102075780820380516001836020036101000a031916815260200191505b509250505060405180910390f35b34801561022157600080fd5b50610256600480360381019080803573ffffffffffffffffffffffffffffffffffffffff169060200190929190505050610cc8565b604051808215151515815260200191505060405180910390f35b34801561027c57600080fd5b506102d7600480360381019080803590602001908201803590602001908080601f0160208091040260200160405190810160405280939291908181526020018383808284378201915050505050509192919290505050610ce8565b005b3480156102e557600080fd5b5061030460048036038101908080359060200190929190505050610f09565b604051808273ffffffffffffffffffffffffffffffffffffffff1673ffffffffffffffffffffffffffffffffffffffff16815260200191505060405180910390f35b34801561035257600080fd5b50610387600480360381019080803573ffffffffffffffffffffffffffffffffffffffff169060200190929190505050610f4c565b005b34801561039557600080fd5b506103b460048036038101908080359060200190929190505050610ff1565b604051808273ffffffffffffffffffffffffffffffffffffffff1673ffffffffffffffffffffffffffffffffffffffff16815260200191505060405180910390f35b34801561040257600080fd5b5061040b611034565b6040518082815260200191505060405180910390f35b34801561042d57600080fd5b50610436611041565b6040518082815260200191505060405180910390f35b34801561045857600080fd5b5061048d600480360381019080803573ffffffffffffffffffffffffffffffffffffffff16906020019092919050505061104e565b005b34801561049b57600080fd5b506104f0600480360381019080803573ffffffffffffffffffffffffffffffffffffffff169060200190929190803573ffffffffffffffffffffffffffffffffffffffff16906020019092919050505061114f565b604051808215151515815260200191505060405180910390f35b34801561051657600080fd5b50610535600480360381019080803590602001909291905050506111e3565b604051808273ffffffffffffffffffffffffffffffffffffffff1673ffffffffffffffffffffffffffffffffffffffff16815260200191505060405180910390f35b34801561058357600080fd5b506105b8600480360381019080803573ffffffffffffffffffffffffffffffffffffffff169060200190929190505050611226565b604051808273ffffffffffffffffffffffffffffffffffffffff1673ffffffffffffffffffffffffffffffffffffffff16815260200191505060405180910390f35b34801561060657600080fd5b5061063b600480360381019080803573ffffffffffffffffffffffffffffffffffffffff169060200190929190505050611291565b604051808215151515815260200191505060405180910390f35b34801561066157600080fd5b50610696600480360381019080803573ffffffffffffffffffffffffffffffffffffffff1690602001909291905050506112b1565b604051808215151515815260200191505060405180910390f35b3480156106bc57600080fd5b506106f1600480360381019080803573ffffffffffffffffffffffffffffffffffffffff1690602001909291905050506112d1565b6040518082815260200191505060405180910390f35b34801561071357600080fd5b50610748600480360381019080803573ffffffffffffffffffffffffffffffffffffffff16906020019092919050505061131d565b604051808273ffffffffffffffffffffffffffffffffffffffff1673ffffffffffffffffffffffffffffffffffffffff16815260200191505060405180910390f35b34801561079657600080fd5b506107cb600480360381019080803573ffffffffffffffffffffffffffffffffffffffff169060200190929190505050611386565b005b3480156107d957600080fd5b50610834600480360381019080803590602001908201803590602001908080601f01602080910402602001604051908101604052809392919081815260200183838082843782019150505050505091929192905050506115ed565b005b34801561084257600080fd5b5061089d600480360381019080803590602001908201803590602001908080601f01602080910402602001604051908101604052809392919081815260200183838082843782019150505050505091929192905050506119be565b604051808273ffffffffffffffffffffffffffffffffffffffff1673ffffffffffffffffffffffffffffffffffffffff16815260200191505060405180910390f35b3480156108eb57600080fd5b5061092c600480360381019080803573ffffffffffffffffffffffffffffffffffffffff169060200190929190803515159060200190929190505050611a53565b005b34801561093a57600080fd5b5061096f600480360381019080803573ffffffffffffffffffffffffffffffffffffffff169060200190929190505050612384565b6040518080602001828103825283818151815260200191508051906020019080838360005b838110156109af578082015181840152602081019050610994565b50505050905090810190601f1680156109dc5780820380516001836020036101000a031916815260200191505b509250505060405180910390f35b3480156109f657600080fd5b50610a2b600480360381019080803573ffffffffffffffffffffffffffffffffffffffff169060200190929190505050612467565b6040518082815260200191505060405180910390f35b348015610a4d57600080fd5b50610a8c600480360381019080803573ffffffffffffffffffffffffffffffffffffffff169060200190929190803590602001909291905050506124b0565b604051808273ffffffffffffffffffffffffffffffffffffffff1673ffffffffffffffffffffffffffffffffffffffff16815260200191505060405180910390f35b348015610ada57600080fd5b50610b0f600480360381019080803573ffffffffffffffffffffffffffffffffffffffff169060200190929190505050612531565b604051808273ffffffffffffffffffffffffffffffffffffffff1673ffffffffffffffffffffffffffffffffffffffff16815260200191505060405180910390f35b348015610b5d57600080fd5b50610b66612564565b6040518082815260200191505060405180910390f35b348015610b8857600080fd5b50610be3600480360381019080803590602001908201803590602001908080601f0160208091040260200160405190810160405280939291908181526020018383808284378201915050505050509192919290505050612571565b005b60606000808373ffffffffffffffffffffffffffffffffffffffff1673ffffffffffffffffffffffffffffffffffffffff1681526020019081526020016000206002018054600181600116156101000203166002900480601f016020809104026020016040519081016040528092919081815260200182805460018160011615610100020316600290048015610cbc5780601f10610c9157610100808354040283529160200191610cbc565b820191906000526020600020905b815481529060010190602001808311610c9f57829003601f168201915b50505050509050919050565b600b6020528060005260406000206000915054906101000a900460ff1681565b600460003373ffffffffffffffffffffffffffffffffffffffff1673ffffffffffffffffffffffffffffffffffffffff16815260200190815260200160002060009054906101000a900460ff161515610d4057600080fd5b600073ffffffffffffffffffffffffffffffffffffffff166001826040518082805190602001908083835b602083101515610d905780518252602082019150602081019050602083039250610d6b565b6001836020036101000a038019825116818451168082178552505050505050905001915050908152602001604051809103902060009054906101000a900473ffffffffffffffffffffffffffffffffffffffff1673ffffffffffffffffffffffffffffffffffffffff16141515610e0657600080fd5b806000803373ffffffffffffffffffffffffffffffffffffffff1673ffffffffffffffffffffffffffffffffffffffff1681526020019081526020016000206000019080519060200190610e5b929190612d2e565b50336001826040518082805190602001908083835b602083101515610e955780518252602082019150602081019050602083039250610e70565b6001836020036101000a038019825116818451168082178552505050505050905001915050908152602001604051809103902060006101000a81548173ffffffffffffffffffffffffffffffffffffffff021916908373ffffffffffffffffffffffffffffffffffffffff16021790555050565b6000600382815481101515610f1a57fe5b9060005260206000200160009054906101000a900473ffffffffffffffffffffffffffffffffffffffff169050919050565b3373ffffffffffffffffffffffffffffffffffffffff16600d60008373ffffffffffffffffffffffffffffffffffffffff1673ffffffffffffffffffffffffffffffffffffffff16815260200190815260200160002060009054906101000a900473ffffffffffffffffffffffffffffffffffffffff1673ffffffffffffffffffffffffffffffffffffffff16141515610fe557600080fd5b610fee816125ca565b50565b6000600a8281548110151561100257fe5b9060005260206000200160009054906101000a900473ffffffffffffffffffffffffffffffffffffffff169050919050565b6000600a80549050905090565b6000600380549050905090565b806000803373ffffffffffffffffffffffffffffffffffffffff1673ffffffffffffffffffffffffffffffffffffffff16815260200190815260200160002060010160006101000a81548173ffffffffffffffffffffffffffffffffffffffff021916908373ffffffffffffffffffffffffffffffffffffffff16021790555033600260008373ffffffffffffffffffffffffffffffffffffffff1673ffffffffffffffffffffffffffffffffffffffff16815260200190815260200160002060006101000a81548173ffffffffffffffffffffffffffffffffffffffff021916908373ffffffffffffffffffffffffffffffffffffffff16021790555050565b6000600760008473ffffffffffffffffffffffffffffffffffffffff1673ffffffffffffffffffffffffffffffffffffffff16815260200190815260200160002060008373ffffffffffffffffffffffffffffffffffffffff1673ffffffffffffffffffffffffffffffffffffffff16815260200190815260200160002060009054906101000a900460ff16905092915050565b60006009828154811015156111f457fe5b9060005260206000200160009054906101000a900473ffffffffffffffffffffffffffffffffffffffff169050919050565b60008060008373ffffffffffffffffffffffffffffffffffffffff1673ffffffffffffffffffffffffffffffffffffffff16815260200190815260200160002060010160009054906101000a900473ffffffffffffffffffffffffffffffffffffffff169050919050565b600c6020528060005260406000206000915054906101000a900460ff1681565b60046020528060005260406000206000915054906101000a900460ff1681565b6000600560008373ffffffffffffffffffffffffffffffffffffffff1673ffffffffffffffffffffffffffffffffffffffff168152602001908152602001600020805490509050919050565b6000600d60008373ffffffffffffffffffffffffffffffffffffffff1673ffffffffffffffffffffffffffffffffffffffff16815260200190815260200160002060009054906101000a900473ffffffffffffffffffffffffffffffffffffffff169050919050565b600460003373ffffffffffffffffffffffffffffffffffffffff1673ffffffffffffffffffffffffffffffffffffffff16815260200190815260200160002060009054906101000a900460ff1615156113de57600080fd5b600460003373ffffffffffffffffffffffffffffffffffffffff1673ffffffffffffffffffffffffffffffffffffffff16815260200190815260200160002060009054906101000a900460ff16151561143657600080fd5b600c60008273ffffffffffffffffffffffffffffffffffffffff1673ffffffffffffffffffffffffffffffffffffffff16815260200190815260200160002060009054906101000a900460ff1615151561148f57600080fd5b60026003805490501115156114a357600080fd5b600a8190806001815401808255809150509060018203906000526020600020016000909192909190916101000a81548173ffffffffffffffffffffffffffffffffffffffff021916908373ffffffffffffffffffffffffffffffffffffffff160217905550506001600c60008373ffffffffffffffffffffffffffffffffffffffff1673ffffffffffffffffffffffffffffffffffffffff16815260200190815260200160002060006101000a81548160ff02191690831515021790555033600d60008373ffffffffffffffffffffffffffffffffffffffff1673ffffffffffffffffffffffffffffffffffffffff16815260200190815260200160002060006101000a81548173ffffffffffffffffffffffffffffffffffffffff021916908373ffffffffffffffffffffffffffffffffffffffff1602179055506115ea816001611a53565b50565b600460003373ffffffffffffffffffffffffffffffffffffffff1673ffffffffffffffffffffffffffffffffffffffff16815260200190815260200160002060009054906101000a900460ff16151561164557600080fd5b600b60003373ffffffffffffffffffffffffffffffffffffffff1673ffffffffffffffffffffffffffffffffffffffff16815260200190815260200160002060009054906101000a900460ff1615151561169e57600080fd5b3373ffffffffffffffffffffffffffffffffffffffff166001826040518082805190602001908083835b6020831015156116ed57805182526020820191506020810190506020830392506116c8565b6001836020036101000a038019825116818451168082178552505050505050905001915050908152602001604051809103902060009054906101000a900473ffffffffffffffffffffffffffffffffffffffff1673ffffffffffffffffffffffffffffffffffffffff1614151561176357600080fd5b60093390806001815401808255809150509060018203906000526020600020016000909192909190916101000a81548173ffffffffffffffffffffffffffffffffffffffff021916908373ffffffffffffffffffffffffffffffffffffffff160217905550506001600b60003373ffffffffffffffffffffffffffffffffffffffff1673ffffffffffffffffffffffffffffffffffffffff16815260200190815260200160002060006101000a81548160ff02191690831515021790555033600d60003373ffffffffffffffffffffffffffffffffffffffff1673ffffffffffffffffffffffffffffffffffffffff16815260200190815260200160002060006101000a81548173ffffffffffffffffffffffffffffffffffffffff021916908373ffffffffffffffffffffffffffffffffffffffff160217905550600073ffffffffffffffffffffffffffffffffffffffff166001826040518082805190602001908083835b6020831015156118ef57805182526020820191506020810190506020830392506118ca565b6001836020036101000a038019825116818451168082178552505050505050905001915050908152602001604051809103902060009054906101000a900473ffffffffffffffffffffffffffffffffffffffff1673ffffffffffffffffffffffffffffffffffffffff1614151561196557600080fd5b806000803373ffffffffffffffffffffffffffffffffffffffff1673ffffffffffffffffffffffffffffffffffffffff16815260200190815260200160002060000190805190602001906119ba929190612d2e565b5050565b60006001826040518082805190602001908083835b6020831015156119f857805182526020820191506020810190506020830392506119d3565b6001836020036101000a038019825116818451168082178552505050505050905001915050908152602001604051809103902060009054906101000a900473ffffffffffffffffffffffffffffffffffffffff169050919050565b600080600460003373ffffffffffffffffffffffffffffffffffffffff1673ffffffffffffffffffffffffffffffffffffffff16815260200190815260200160002060009054906101000a900460ff161515611aae57600080fd5b600b60008573ffffffffffffffffffffffffffffffffffffffff1673ffffffffffffffffffffffffffffffffffffffff16815260200190815260200160002060009054906101000a900460ff1680611b4f5750600c60008573ffffffffffffffffffffffffffffffffffffffff1673ffffffffffffffffffffffffffffffffffffffff16815260200190815260200160002060009054906101000a900460ff165b1515611b5a57600080fd5b600760008573ffffffffffffffffffffffffffffffffffffffff1673ffffffffffffffffffffffffffffffffffffffff16815260200190815260200160002060003373ffffffffffffffffffffffffffffffffffffffff1673ffffffffffffffffffffffffffffffffffffffff16815260200190815260200160002060009054906101000a900460ff168015611bee575082155b15611c42576001600860008673ffffffffffffffffffffffffffffffffffffffff1673ffffffffffffffffffffffffffffffffffffffff168152602001908152602001600020600082825403925050819055505b600760008573ffffffffffffffffffffffffffffffffffffffff1673ffffffffffffffffffffffffffffffffffffffff16815260200190815260200160002060003373ffffffffffffffffffffffffffffffffffffffff1673ffffffffffffffffffffffffffffffffffffffff16815260200190815260200160002060009054906101000a900460ff16158015611cd65750825b15611d2a576001600860008673ffffffffffffffffffffffffffffffffffffffff1673ffffffffffffffffffffffffffffffffffffffff168152602001908152602001600020600082825401925050819055505b82600760008673ffffffffffffffffffffffffffffffffffffffff1673ffffffffffffffffffffffffffffffffffffffff16815260200190815260200160002060003373ffffffffffffffffffffffffffffffffffffffff1673ffffffffffffffffffffffffffffffffffffffff16815260200190815260200160002060006101000a81548160ff021916908315150217905550600660008573ffffffffffffffffffffffffffffffffffffffff1673ffffffffffffffffffffffffffffffffffffffff16815260200190815260200160002060003373ffffffffffffffffffffffffffffffffffffffff1673ffffffffffffffffffffffffffffffffffffffff16815260200190815260200160002060009054906101000a900460ff161515611ef257600560008573ffffffffffffffffffffffffffffffffffffffff1673ffffffffffffffffffffffffffffffffffffffff1681526020019081526020016000203390806001815401808255809150509060018203906000526020600020016000909192909190916101000a81548173ffffffffffffffffffffffffffffffffffffffff021916908373ffffffffffffffffffffffffffffffffffffffff160217905550505b6001600660008673ffffffffffffffffffffffffffffffffffffffff1673ffffffffffffffffffffffffffffffffffffffff16815260200190815260200160002060003373ffffffffffffffffffffffffffffffffffffffff1673ffffffffffffffffffffffffffffffffffffffff16815260200190815260200160002060006101000a81548160ff021916908315150217905550821515611f935761237e565b6002600160038054905001811515611fa757fe5b04600860008673ffffffffffffffffffffffffffffffffffffffff1673ffffffffffffffffffffffffffffffffffffffff168152602001908152602001600020541015611ff35761237e565b600c60008573ffffffffffffffffffffffffffffffffffffffff1673ffffffffffffffffffffffffffffffffffffffff16815260200190815260200160002060009054906101000a900460ff16156122725760009150600090505b6003805490508110156121755781156120f65760038181548110151561207057fe5b9060005260206000200160009054906101000a900473ffffffffffffffffffffffffffffffffffffffff166003600183038154811015156120ad57fe5b9060005260206000200160006101000a81548173ffffffffffffffffffffffffffffffffffffffff021916908373ffffffffffffffffffffffffffffffffffffffff1602179055505b8373ffffffffffffffffffffffffffffffffffffffff1660038281548110151561211c57fe5b9060005260206000200160009054906101000a900473ffffffffffffffffffffffffffffffffffffffff1673ffffffffffffffffffffffffffffffffffffffff16141561216857600191505b808060010191505061204e565b600360016003805490500381548110151561218c57fe5b9060005260206000200160006101000a81549073ffffffffffffffffffffffffffffffffffffffff021916905560016003818180549050039150816121d19190612dae565b506000600460008673ffffffffffffffffffffffffffffffffffffffff1673ffffffffffffffffffffffffffffffffffffffff16815260200190815260200160002060006101000a81548160ff0219169083151502179055508373ffffffffffffffffffffffffffffffffffffffff167f1803740ef72fc16e647c10fe2d31cf61a1578081960c2e3fb7f5aa957e82f55060405160405180910390a2612374565b60038490806001815401808255809150509060018203906000526020600020016000909192909190916101000a81548173ffffffffffffffffffffffffffffffffffffffff021916908373ffffffffffffffffffffffffffffffffffffffff160217905550506001600460008673ffffffffffffffffffffffffffffffffffffffff1673ffffffffffffffffffffffffffffffffffffffff16815260200190815260200160002060006101000a81548160ff0219169083151502179055508373ffffffffffffffffffffffffffffffffffffffff167f637c77a2d598a51d085d4a2413332c45a235a25ee855bf3dfcdc2c8fcf02860f60405160405180910390a25b61237d846125ca565b5b50505050565b60606000808373ffffffffffffffffffffffffffffffffffffffff1673ffffffffffffffffffffffffffffffffffffffff1681526020019081526020016000206000018054600181600116156101000203166002900480601f01602080910402602001604051908101604052809291908181526020018280546001816001161561010002031660029004801561245b5780601f106124305761010080835404028352916020019161245b565b820191906000526020600020905b81548152906001019060200180831161243e57829003601f168201915b50505050509050919050565b6000600860008373ffffffffffffffffffffffffffffffffffffffff1673ffffffffffffffffffffffffffffffffffffffff168152602001908152602001600020549050919050565b6000600560008473ffffffffffffffffffffffffffffffffffffffff1673ffffffffffffffffffffffffffffffffffffffff168152602001908152602001600020828154811015156124fe57fe5b9060005260206000200160009054906101000a900473ffffffffffffffffffffffffffffffffffffffff16905092915050565b60026020528060005260406000206000915054906101000a900473ffffffffffffffffffffffffffffffffffffffff1681565b6000600980549050905090565b806000803373ffffffffffffffffffffffffffffffffffffffff1673ffffffffffffffffffffffffffffffffffffffff16815260200190815260200160002060020190805190602001906125c6929190612d2e565b5050565b600080600091505b600560008473ffffffffffffffffffffffffffffffffffffffff1673ffffffffffffffffffffffffffffffffffffffff1681526020019081526020016000208054905082101561282d57600760008473ffffffffffffffffffffffffffffffffffffffff1673ffffffffffffffffffffffffffffffffffffffff1681526020019081526020016000206000600560008673ffffffffffffffffffffffffffffffffffffffff1673ffffffffffffffffffffffffffffffffffffffff168152602001908152602001600020848154811015156126a957fe5b9060005260206000200160009054906101000a900473ffffffffffffffffffffffffffffffffffffffff1673ffffffffffffffffffffffffffffffffffffffff1673ffffffffffffffffffffffffffffffffffffffff16815260200190815260200160002060006101000a81549060ff0219169055600660008473ffffffffffffffffffffffffffffffffffffffff1673ffffffffffffffffffffffffffffffffffffffff1681526020019081526020016000206000600560008673ffffffffffffffffffffffffffffffffffffffff1673ffffffffffffffffffffffffffffffffffffffff168152602001908152602001600020848154811015156127ab57fe5b9060005260206000200160009054906101000a900473ffffffffffffffffffffffffffffffffffffffff1673ffffffffffffffffffffffffffffffffffffffff1673ffffffffffffffffffffffffffffffffffffffff16815260200190815260200160002060006101000a81549060ff021916905581806001019250506125d2565b600560008473ffffffffffffffffffffffffffffffffffffffff1673ffffffffffffffffffffffffffffffffffffffff16815260200190815260200160002060006128789190612dda565b600d60008473ffffffffffffffffffffffffffffffffffffffff1673ffffffffffffffffffffffffffffffffffffffff16815260200190815260200160002060006101000a81549073ffffffffffffffffffffffffffffffffffffffff0219169055600860008473ffffffffffffffffffffffffffffffffffffffff1673ffffffffffffffffffffffffffffffffffffffff1681526020019081526020016000206000905560009050600b60008473ffffffffffffffffffffffffffffffffffffffff1673ffffffffffffffffffffffffffffffffffffffff16815260200190815260200160002060009054906101000a900460ff1615612b5057600b60008473ffffffffffffffffffffffffffffffffffffffff1673ffffffffffffffffffffffffffffffffffffffff16815260200190815260200160002060006101000a81549060ff0219169055600091505b600980549050821015612aee578015612a6f576009828154811015156129e957fe5b9060005260206000200160009054906101000a900473ffffffffffffffffffffffffffffffffffffffff16600960018403815481101515612a2657fe5b9060005260206000200160006101000a81548173ffffffffffffffffffffffffffffffffffffffff021916908373ffffffffffffffffffffffffffffffffffffffff1602179055505b8273ffffffffffffffffffffffffffffffffffffffff16600983815481101515612a9557fe5b9060005260206000200160009054906101000a900473ffffffffffffffffffffffffffffffffffffffff1673ffffffffffffffffffffffffffffffffffffffff161415612ae157600190505b81806001019250506129c7565b6009600160098054905003815481101515612b0557fe5b9060005260206000200160006101000a81549073ffffffffffffffffffffffffffffffffffffffff02191690556001600981818054905003915081612b4a9190612dae565b50612d29565b600c60008473ffffffffffffffffffffffffffffffffffffffff1673ffffffffffffffffffffffffffffffffffffffff16815260200190815260200160002060006101000a81549060ff0219169055600091505b600a80549050821015612ccb578015612c4c57600a82815481101515612bc657fe5b9060005260206000200160009054906101000a900473ffffffffffffffffffffffffffffffffffffffff16600a60018403815481101515612c0357fe5b9060005260206000200160006101000a81548173ffffffffffffffffffffffffffffffffffffffff021916908373ffffffffffffffffffffffffffffffffffffffff1602179055505b8273ffffffffffffffffffffffffffffffffffffffff16600a83815481101515612c7257fe5b9060005260206000200160009054906101000a900473ffffffffffffffffffffffffffffffffffffffff1673ffffffffffffffffffffffffffffffffffffffff161415612cbe57600190505b8180600101925050612ba4565b600a6001600a8054905003815481101515612ce257fe5b9060005260206000200160006101000a81549073ffffffffffffffffffffffffffffffffffffffff02191690556001600a81818054905003915081612d279190612dae565b505b505050565b828054600181600116156101000203166002900490600052602060002090601f016020900481019282601f10612d6f57805160ff1916838001178555612d9d565b82800160010185558215612d9d579182015b82811115612d9c578251825591602001919060010190612d81565b5b509050612daa9190612dfb565b5090565b815481835581811115612dd557818360005260206000209182019101612dd49190612dfb565b5b505050565b5080546000825590600052602060002090810190612df89190612dfb565b50565b612e1d91905b80821115612e19576000816000905550600101612e01565b5090565b905600a165627a7a7230582060515921929e67895d67fe4d9819658b3d1c839bc96587dbf302a24070cb57f40029",
  "source": "pragma solidity ^0.4.0;\r\n\r\ncontract AgentRegistry {\r\n    struct Agent {\r\n        string name;\r\n        address contractAddr;\r\n        string host;\r\n    }\r\n    mapping(address => Agent) agentInfo;\r\n    mapping(string => address) agentByName;\r\n    mapping(address => address) public agentFromContract;\r\n\r\n    address[] signers;\r\n    mapping(address => bool) public isSigner;\r\n    mapping(address => address[]) voters;\r\n    mapping(address => mapping(address => bool)) hasVoted;\r\n    mapping(address => mapping(address => bool)) voteInfo;\r\n\r\n    mapping(address => uint256) yayVotes;\r\n\r\n    address[] prospectives;\r\n    address[] kicked;\r\n    mapping(address => bool) public isProspective;\r\n    mapping(address => bool) public isKicked;\r\n\r\n    mapping(address => address) proposer;\r\n\r\n    event AddSigner(address indexed addr);\r\n    event RemoveSigner(address indexed addr);\r\n\r\n    modifier onlySigners() {\r\n        require(isSigner[msg.sender]);\r\n        _;\r\n    }\r\n\r\n    constructor(\r\n        string name,\r\n        address contractAddr,\r\n        string host\r\n    ) public {\r\n        signers.push(msg.sender);\r\n        agentInfo[msg.sender] = Agent(name, contractAddr, host);\r\n        agentByName[name] = msg.sender;\r\n        agentFromContract[contractAddr] = msg.sender;\r\n        isSigner[msg.sender] = true;\r\n    }\r\n\r\n    function setAgentName(string name) public onlySigners {\r\n        //throw if the name is taken.\r\n        require(agentByName[name] == address(0));\r\n        agentInfo[msg.sender].name = name;\r\n        agentByName[name] = msg.sender;\r\n    }\r\n\r\n    function setAgentContractAddr(address contractAddr) public {\r\n        agentInfo[msg.sender].contractAddr = contractAddr;\r\n        agentFromContract[contractAddr] = msg.sender;\r\n    }\r\n\r\n    function setAgentHost(string host) public {\r\n        agentInfo[msg.sender].host = host;\r\n    }\r\n\r\n    function propose(string name) public onlySigners {\r\n        require(!isProspective[msg.sender]);\r\n        require(agentByName[name] == msg.sender);\r\n\r\n        prospectives.push(msg.sender);\r\n        isProspective[msg.sender] = true;\r\n        proposer[msg.sender] = msg.sender;\r\n\r\n        //throw if name is taken.\r\n        require(agentByName[name] == address(0));\r\n        agentInfo[msg.sender].name = name;\r\n    }\r\n\r\n    function kick(address rip) public onlySigners {\r\n        require(isSigner[msg.sender]);\r\n        require(!isKicked[rip]); //make sure address rip is not already kicked\r\n        require(signers.length > 2);\r\n\r\n        kicked.push(rip); //push the address rip to list of kicked addresses\r\n        isKicked[rip] = true;\r\n        proposer[rip] = msg.sender;\r\n        vote(rip, true); //vote for rip to be kicked\r\n    }\r\n\r\n    function rescind(address prospective) public {\r\n        require(proposer[prospective] == msg.sender);\r\n        clearVotes(prospective);\r\n    }\r\n\r\n    function clearVotes(address prospective) internal {\r\n        uint256 i;\r\n        for (i = 0; i < voters[prospective].length; i++) {\r\n            delete voteInfo[prospective][voters[prospective][i]];\r\n            delete hasVoted[prospective][voters[prospective][i]];\r\n        }\r\n        delete voters[prospective];\r\n        delete proposer[prospective];\r\n        delete yayVotes[prospective];\r\n\r\n        bool overwrite = false;\r\n        if (isProspective[prospective]) {\r\n            delete isProspective[prospective];\r\n            for (i = 0; i < prospectives.length; i++) {\r\n                if (overwrite) {\r\n                    prospectives[i - 1] = prospectives[i];\r\n                }\r\n                if (prospectives[i] == prospective) {\r\n                    overwrite = true;\r\n                }\r\n            }\r\n            delete (prospectives[prospectives.length - 1]);\r\n            prospectives.length -= 1;\r\n        } else {\r\n            delete isKicked[prospective];\r\n            for (i = 0; i < kicked.length; i++) {\r\n                if (overwrite) {\r\n                    kicked[i - 1] = kicked[i];\r\n                }\r\n                if (kicked[i] == prospective) {\r\n                    overwrite = true;\r\n                }\r\n            }\r\n            delete (kicked[kicked.length - 1]);\r\n            kicked.length -= 1;\r\n        }\r\n    }\r\n\r\n    function vote(address prospective, bool value) public onlySigners {\r\n        require(isProspective[prospective] || isKicked[prospective]);\r\n\r\n        if (voteInfo[prospective][msg.sender] && !value) {\r\n            yayVotes[prospective] -= 1;\r\n        }\r\n        if (!voteInfo[prospective][msg.sender] && value) {\r\n            yayVotes[prospective] += 1;\r\n        }\r\n        voteInfo[prospective][msg.sender] = value;\r\n        if (!hasVoted[prospective][msg.sender]) {\r\n            voters[prospective].push(msg.sender);\r\n        }\r\n        hasVoted[prospective][msg.sender] = true;\r\n\r\n        if (!value) return;\r\n        if (yayVotes[prospective] < (signers.length + 1) / 2) return;\r\n        if (isKicked[prospective]) {\r\n            bool overwrite = false;\r\n            for (uint256 i = 0; i < signers.length; i++) {\r\n                if (overwrite) {\r\n                    signers[i - 1] = signers[i];\r\n                }\r\n                if (signers[i] == prospective) {\r\n                    overwrite = true;\r\n                }\r\n            }\r\n            delete (signers[signers.length - 1]);\r\n            signers.length -= 1;\r\n            isSigner[prospective] = false;\r\n            emit RemoveSigner(prospective);\r\n        } else {\r\n            signers.push(prospective);\r\n            isSigner[prospective] = true;\r\n            emit AddSigner(prospective);\r\n        }\r\n        clearVotes(prospective);\r\n    }\r\n\r\n    function getAgentByName(string name) public constant returns (address) {\r\n        return agentByName[name];\r\n    }\r\n\r\n    function getAgentName(address addr) public constant returns (string) {\r\n        return agentInfo[addr].name;\r\n    }\r\n\r\n    function getAgentContractAddr(address addr)\r\n        public\r\n        constant\r\n        returns (address)\r\n    {\r\n        return agentInfo[addr].contractAddr;\r\n    }\r\n\r\n    function getAgentHost(address addr) public constant returns (string) {\r\n        return agentInfo[addr].host;\r\n    }\r\n\r\n    function getNumSigners() public constant returns (uint256) {\r\n        return signers.length;\r\n    }\r\n\r\n    function getSigner(uint256 idx) public constant returns (address) {\r\n        return signers[idx];\r\n    }\r\n\r\n    function getNumVoters(address prospective)\r\n        public\r\n        constant\r\n        returns (uint256)\r\n    {\r\n        return voters[prospective].length;\r\n    }\r\n\r\n    function getVoter(address prospective, uint256 idx)\r\n        public\r\n        constant\r\n        returns (address)\r\n    {\r\n        return voters[prospective][idx];\r\n    }\r\n\r\n    function getVoteInfo(address prospective, address signer)\r\n        public\r\n        constant\r\n        returns (bool)\r\n    {\r\n        return voteInfo[prospective][signer];\r\n    }\r\n\r\n    function getNumYayVotes(address prospective)\r\n        public\r\n        constant\r\n        returns (uint256)\r\n    {\r\n        return yayVotes[prospective];\r\n    }\r\n\r\n    function getNumProspectives() public constant returns (uint256) {\r\n        return prospectives.length;\r\n    }\r\n\r\n    function getProspective(uint256 idx) public constant returns (address) {\r\n        return prospectives[idx];\r\n    }\r\n\r\n    function getNumKicked() public constant returns (uint256) {\r\n        return kicked.length;\r\n    }\r\n\r\n    function getKicked(uint256 idx) public constant returns (address) {\r\n        return kicked[idx];\r\n    }\r\n\r\n    function getProposer(address prospective)\r\n        public\r\n        constant\r\n        returns (address)\r\n    {\r\n        return proposer[prospective];\r\n    }\r\n}\r\n",
  "sourcePath": "C:\\Projects\\Programming\\2021\\blockchain-medical-record\\src\\contracts\\AgentRegistry.sol",
  "compiler": {
    "name": "solc",
    "version": "0.4.26+commit.4563c3fc.Emscripten.clang"
  },
  "schemaVersion": "3.4.6",
  "updatedAt": "2022-03-29T05:22:15.320Z",
  "networkType": "ethereum",
  "devdoc": {
    "methods": {}
  },
  "userdoc": {
    "methods": {}
  }
}