{
  "contractName": "AllAccessRelationship",
  "abi": [
    {
      "constant": true,
      "inputs": [],
      "name": "providerName",
      "outputs": [
        {
          "name": "",
          "type": "string"
        }
      ],
      "payable": false,
      "stateMutability": "view",
      "type": "function"
    },
    {
      "constant": true,
      "inputs": [],
      "name": "provider",
      "outputs": [
        {
          "name": "",
          "type": "address"
        }
      ],
      "payable": false,
      "stateMutability": "view",
      "type": "function"
    },
    {
      "constant": true,
      "inputs": [],
      "name": "patron",
      "outputs": [
        {
          "name": "",
          "type": "address"
        }
      ],
      "payable": false,
      "stateMutability": "view",
      "type": "function"
    },
    {
      "constant": true,
      "inputs": [
        {
          "name": "",
          "type": "address"
        }
      ],
      "name": "isViewer",
      "outputs": [
        {
          "name": "",
          "type": "bool"
        }
      ],
      "payable": false,
      "stateMutability": "view",
      "type": "function"
    },
    {
      "constant": true,
      "inputs": [
        {
          "name": "",
          "type": "uint256"
        }
      ],
      "name": "viewers",
      "outputs": [
        {
          "name": "",
          "type": "address"
        }
      ],
      "payable": false,
      "stateMutability": "view",
      "type": "function"
    },
    {
      "constant": false,
      "inputs": [
        {
          "name": "_provider",
          "type": "address"
        }
      ],
      "name": "Relationship",
      "outputs": [],
      "payable": false,
      "stateMutability": "nonpayable",
      "type": "function"
    },
    {
      "constant": false,
      "inputs": [
        {
          "name": "name",
          "type": "string"
        }
      ],
      "name": "setProviderName",
      "outputs": [],
      "payable": false,
      "stateMutability": "nonpayable",
      "type": "function"
    },
    {
      "constant": false,
      "inputs": [
        {
          "name": "name",
          "type": "string"
        },
        {
          "name": "viewer",
          "type": "address"
        }
      ],
      "name": "addViewer",
      "outputs": [],
      "payable": false,
      "stateMutability": "nonpayable",
      "type": "function"
    },
    {
      "constant": false,
      "inputs": [
        {
          "name": "viewer",
          "type": "address"
        }
      ],
      "name": "removeViewer",
      "outputs": [],
      "payable": false,
      "stateMutability": "nonpayable",
      "type": "function"
    },
    {
      "constant": true,
      "inputs": [],
      "name": "getNumViewers",
      "outputs": [
        {
          "name": "",
          "type": "uint256"
        }
      ],
      "payable": false,
      "stateMutability": "view",
      "type": "function"
    },
    {
      "constant": true,
      "inputs": [
        {
          "name": "name",
          "type": "string"
        }
      ],
      "name": "getViewerByName",
      "outputs": [
        {
          "name": "",
          "type": "address"
        }
      ],
      "payable": false,
      "stateMutability": "view",
      "type": "function"
    },
    {
      "constant": true,
      "inputs": [
        {
          "name": "addr",
          "type": "address"
        }
      ],
      "name": "getViewerName",
      "outputs": [
        {
          "name": "",
          "type": "string"
        }
      ],
      "payable": false,
      "stateMutability": "view",
      "type": "function"
    },
    {
      "constant": false,
      "inputs": [],
      "name": "terminate",
      "outputs": [],
      "payable": false,
      "stateMutability": "nonpayable",
      "type": "function"
    }
  ],
  "bytecode": "0x608060405234801561001057600080fd5b50611128806100206000396000f3006080604052600436106100c4576000357c0100000000000000000000000000000000000000000000000000000000900463ffffffff168062dad7d4146100c9578063046f3ab714610159578063085d48831461018457806309c0974f146101db5780630ba32b27146102645780630c08bf88146102bb5780632bba6fb7146102d2578063322eb71d1461032d578063444ee902146103e95780635155cb16146104525780639abdc7a2146104bf578063bc1d708714610502578063d1d98914146105ab575b600080fd5b3480156100d557600080fd5b506100de6105ee565b6040518080602001828103825283818151815260200191508051906020019080838360005b8381101561011e578082015181840152602081019050610103565b50505050905090810190601f16801561014b5780820380516001836020036101000a031916815260200191505b509250505060405180910390f35b34801561016557600080fd5b5061016e61068c565b6040518082815260200191505060405180910390f35b34801561019057600080fd5b50610199610699565b604051808273ffffffffffffffffffffffffffffffffffffffff1673ffffffffffffffffffffffffffffffffffffffff16815260200191505060405180910390f35b3480156101e757600080fd5b50610262600480360381019080803590602001908201803590602001908080601f0160208091040260200160405190810160405280939291908181526020018383808284378201915050505050509192919290803573ffffffffffffffffffffffffffffffffffffffff1690602001909291905050506106bf565b005b34801561027057600080fd5b50610279610906565b604051808273ffffffffffffffffffffffffffffffffffffffff1673ffffffffffffffffffffffffffffffffffffffff16815260200191505060405180910390f35b3480156102c757600080fd5b506102d061092b565b005b3480156102de57600080fd5b50610313600480360381019080803573ffffffffffffffffffffffffffffffffffffffff169060200190929190505050610a1a565b604051808215151515815260200191505060405180910390f35b34801561033957600080fd5b5061036e600480360381019080803573ffffffffffffffffffffffffffffffffffffffff169060200190929190505050610a3a565b6040518080602001828103825283818151815260200191508051906020019080838360005b838110156103ae578082015181840152602081019050610393565b50505050905090810190601f1680156103db5780820380516001836020036101000a031916815260200191505b509250505060405180910390f35b3480156103f557600080fd5b50610450600480360381019080803590602001908201803590602001908080601f0160208091040260200160405190810160405280939291908181526020018383808284378201915050505050509192919290505050610b1e565b005b34801561045e57600080fd5b5061047d60048036038101908080359060200190929190505050610b38565b604051808273ffffffffffffffffffffffffffffffffffffffff1673ffffffffffffffffffffffffffffffffffffffff16815260200191505060405180910390f35b3480156104cb57600080fd5b50610500600480360381019080803573ffffffffffffffffffffffffffffffffffffffff169060200190929190505050610b76565b005b34801561050e57600080fd5b50610569600480360381019080803590602001908201803590602001908080601f0160208091040260200160405190810160405280939291908181526020018383808284378201915050505050509192919290505050610bfa565b604051808273ffffffffffffffffffffffffffffffffffffffff1673ffffffffffffffffffffffffffffffffffffffff16815260200191505060405180910390f35b3480156105b757600080fd5b506105ec600480360381019080803573ffffffffffffffffffffffffffffffffffffffff169060200190929190505050610c8f565b005b60028054600181600116156101000203166002900480601f0160208091040260200160405190810160405280929190818152602001828054600181600116156101000203166002900480156106845780601f1061065957610100808354040283529160200191610684565b820191906000526020600020905b81548152906001019060200180831161066757829003601f168201915b505050505081565b6000600380549050905090565b600160009054906101000a900473ffffffffffffffffffffffffffffffffffffffff1681565b6000809054906101000a900473ffffffffffffffffffffffffffffffffffffffff1673ffffffffffffffffffffffffffffffffffffffff163373ffffffffffffffffffffffffffffffffffffffff1614151561071a57600080fd5b600460008273ffffffffffffffffffffffffffffffffffffffff1673ffffffffffffffffffffffffffffffffffffffff16815260200190815260200160002060009054906101000a900460ff1615151561077357600080fd5b6001600460008373ffffffffffffffffffffffffffffffffffffffff1673ffffffffffffffffffffffffffffffffffffffff16815260200190815260200160002060006101000a81548160ff02191690831515021790555060038190806001815401808255809150509060018203906000526020600020016000909192909190916101000a81548173ffffffffffffffffffffffffffffffffffffffff021916908373ffffffffffffffffffffffffffffffffffffffff1602179055505060408051908101604052808381526020018273ffffffffffffffffffffffffffffffffffffffff16815250600560008373ffffffffffffffffffffffffffffffffffffffff1673ffffffffffffffffffffffffffffffffffffffff16815260200190815260200160002060008201518160000190805190602001906108b7929190610f8f565b5060208201518160010160006101000a81548173ffffffffffffffffffffffffffffffffffffffff021916908373ffffffffffffffffffffffffffffffffffffffff1602179055509050505050565b6000809054906101000a900473ffffffffffffffffffffffffffffffffffffffff1681565b6000809054906101000a900473ffffffffffffffffffffffffffffffffffffffff1673ffffffffffffffffffffffffffffffffffffffff163373ffffffffffffffffffffffffffffffffffffffff16141580156109d65750600160009054906101000a900473ffffffffffffffffffffffffffffffffffffffff1673ffffffffffffffffffffffffffffffffffffffff163373ffffffffffffffffffffffffffffffffffffffff1614155b156109e057600080fd5b6000809054906101000a900473ffffffffffffffffffffffffffffffffffffffff1673ffffffffffffffffffffffffffffffffffffffff16ff5b60046020528060005260406000206000915054906101000a900460ff1681565b6060600560008373ffffffffffffffffffffffffffffffffffffffff1673ffffffffffffffffffffffffffffffffffffffff1681526020019081526020016000206000018054600181600116156101000203166002900480601f016020809104026020016040519081016040528092919081815260200182805460018160011615610100020316600290048015610b125780601f10610ae757610100808354040283529160200191610b12565b820191906000526020600020905b815481529060010190602001808311610af557829003601f168201915b50505050509050919050565b8060029080519060200190610b3492919061100f565b5050565b600381815481101515610b4757fe5b906000526020600020016000915054906101000a900473ffffffffffffffffffffffffffffffffffffffff1681565b336000806101000a81548173ffffffffffffffffffffffffffffffffffffffff021916908373ffffffffffffffffffffffffffffffffffffffff16021790555080600160006101000a81548173ffffffffffffffffffffffffffffffffffffffff021916908373ffffffffffffffffffffffffffffffffffffffff16021790555050565b60006006826040518082805190602001908083835b602083101515610c345780518252602082019150602081019050602083039250610c0f565b6001836020036101000a038019825116818451168082178552505050505050905001915050908152602001604051809103902060009054906101000a900473ffffffffffffffffffffffffffffffffffffffff169050919050565b6000806000809054906101000a900473ffffffffffffffffffffffffffffffffffffffff1673ffffffffffffffffffffffffffffffffffffffff163373ffffffffffffffffffffffffffffffffffffffff16141515610ced57600080fd5b600460008473ffffffffffffffffffffffffffffffffffffffff1673ffffffffffffffffffffffffffffffffffffffff16815260200190815260200160002060009054906101000a900460ff161515610d4557600080fd5b6000600460008573ffffffffffffffffffffffffffffffffffffffff1673ffffffffffffffffffffffffffffffffffffffff16815260200190815260200160002060006101000a81548160ff02191690831515021790555060009150600090505b600380549050811015610ecd578115610e4e57600381815481101515610dc857fe5b9060005260206000200160009054906101000a900473ffffffffffffffffffffffffffffffffffffffff16600360018303815481101515610e0557fe5b9060005260206000200160006101000a81548173ffffffffffffffffffffffffffffffffffffffff021916908373ffffffffffffffffffffffffffffffffffffffff1602179055505b8273ffffffffffffffffffffffffffffffffffffffff16600382815481101515610e7457fe5b9060005260206000200160009054906101000a900473ffffffffffffffffffffffffffffffffffffffff1673ffffffffffffffffffffffffffffffffffffffff161415610ec057600191505b8080600101915050610da6565b6003600160038054905003815481101515610ee457fe5b9060005260206000200160006101000a81549073ffffffffffffffffffffffffffffffffffffffff0219169055600560008473ffffffffffffffffffffffffffffffffffffffff1673ffffffffffffffffffffffffffffffffffffffff16815260200190815260200160002060008082016000610f61919061108f565b6001820160006101000a81549073ffffffffffffffffffffffffffffffffffffffff02191690555050505050565b828054600181600116156101000203166002900490600052602060002090601f016020900481019282601f10610fd057805160ff1916838001178555610ffe565b82800160010185558215610ffe579182015b82811115610ffd578251825591602001919060010190610fe2565b5b50905061100b91906110d7565b5090565b828054600181600116156101000203166002900490600052602060002090601f016020900481019282601f1061105057805160ff191683800117855561107e565b8280016001018555821561107e579182015b8281111561107d578251825591602001919060010190611062565b5b50905061108b91906110d7565b5090565b50805460018160011615610100020316600290046000825580601f106110b557506110d4565b601f0160209004906000526020600020908101906110d391906110d7565b5b50565b6110f991905b808211156110f55760008160009055506001016110dd565b5090565b905600a165627a7a72305820fa6577acb1a74fc1f78181be150a52877f28f178c51b0a0b03338ea6aee6bcd00029",
  "source": "pragma solidity ^0.4.0;\r\n\r\ncontract AllAccessRelationship {\r\n    address public patron;\r\n    address public provider;\r\n    string public providerName;\r\n\r\n    struct Viewer {\r\n        string name;\r\n        address addr;\r\n    }\r\n\r\n    address[] public viewers;\r\n    mapping(address => bool) public isViewer;\r\n    mapping(address => Viewer) viewerInfo;\r\n    mapping(string => address) viewerByName;\r\n\r\n    uint256 constant UINT256_MAX = ~uint256(0);\r\n\r\n    modifier isPatron() {\r\n        if (msg.sender != patron) revert();\r\n        _;\r\n    }\r\n\r\n    function Relationship(address _provider) public {\r\n        patron = msg.sender;\r\n        provider = _provider;\r\n    }\r\n\r\n    function setProviderName(string name) public {\r\n        providerName = name;\r\n    }\r\n\r\n    function addViewer(string name, address viewer) public isPatron {\r\n        require(!isViewer[viewer]);\r\n\r\n        isViewer[viewer] = true;\r\n        viewers.push(viewer);\r\n        viewerInfo[viewer] = Viewer(name, viewer);\r\n    }\r\n\r\n    function removeViewer(address viewer) public isPatron {\r\n        require(isViewer[viewer]);\r\n\r\n        isViewer[viewer] = false;\r\n        bool overwrite = false;\r\n        for (uint256 i = 0; i < viewers.length; i++) {\r\n            if (overwrite) {\r\n                viewers[i - 1] = viewers[i];\r\n            }\r\n            if (viewers[i] == viewer) {\r\n                overwrite = true;\r\n            }\r\n        }\r\n        delete (viewers[viewers.length - 1]);\r\n        delete (viewerInfo[viewer]);\r\n    }\r\n\r\n    function getNumViewers() public constant returns (uint256) {\r\n        return viewers.length;\r\n    }\r\n\r\n    function getViewerByName(string name) public constant returns (address) {\r\n        return viewerByName[name];\r\n    }\r\n\r\n    function getViewerName(address addr) public constant returns (string) {\r\n        return viewerInfo[addr].name;\r\n    }\r\n\r\n    function terminate() public {\r\n        if (msg.sender != patron && msg.sender != provider) revert();\r\n        selfdestruct(patron);\r\n    }\r\n}\r\n",
  "sourcePath": "C:\\Projects\\Programming\\2021\\blockchain-medical-record\\src\\contracts\\AllAccessRelationship.sol",
  "compiler": {
    "name": "solc",
    "version": "0.4.26+commit.4563c3fc.Emscripten.clang"
  },
  "schemaVersion": "3.4.6",
  "updatedAt": "2022-03-29T05:22:15.344Z",
  "networkType": "ethereum",
  "devdoc": {
    "methods": {}
  },
  "userdoc": {
    "methods": {}
  }
}