{
  "contractName": "Relationship",
  "abi": [
    {
      "constant": true,
      "inputs": [],
      "name": "providerName",
      "outputs": [
        {
          "name": "",
          "type": "string"
        }
      ],
      "payable": false,
      "stateMutability": "view",
      "type": "function"
    },
    {
      "constant": true,
      "inputs": [],
      "name": "provider",
      "outputs": [
        {
          "name": "",
          "type": "address"
        }
      ],
      "payable": false,
      "stateMutability": "view",
      "type": "function"
    },
    {
      "constant": true,
      "inputs": [],
      "name": "patron",
      "outputs": [
        {
          "name": "",
          "type": "address"
        }
      ],
      "payable": false,
      "stateMutability": "view",
      "type": "function"
    },
    {
      "constant": true,
      "inputs": [],
      "name": "providerAddr",
      "outputs": [
        {
          "name": "",
          "type": "string"
        }
      ],
      "payable": false,
      "stateMutability": "view",
      "type": "function"
    },
    {
      "constant": true,
      "inputs": [
        {
          "name": "",
          "type": "address"
        }
      ],
      "name": "isViewer",
      "outputs": [
        {
          "name": "",
          "type": "bool"
        }
      ],
      "payable": false,
      "stateMutability": "view",
      "type": "function"
    },
    {
      "inputs": [
        {
          "name": "_provider",
          "type": "address"
        }
      ],
      "payable": false,
      "stateMutability": "nonpayable",
      "type": "constructor"
    },
    {
      "constant": false,
      "inputs": [
        {
          "name": "addr",
          "type": "string"
        }
      ],
      "name": "setProviderAddress",
      "outputs": [],
      "payable": false,
      "stateMutability": "nonpayable",
      "type": "function"
    },
    {
      "constant": false,
      "inputs": [
        {
          "name": "name",
          "type": "string"
        }
      ],
      "name": "setProviderName",
      "outputs": [],
      "payable": false,
      "stateMutability": "nonpayable",
      "type": "function"
    },
    {
      "constant": false,
      "inputs": [],
      "name": "addViewerGroup",
      "outputs": [],
      "payable": false,
      "stateMutability": "nonpayable",
      "type": "function"
    },
    {
      "constant": false,
      "inputs": [
        {
          "name": "viewerGroup",
          "type": "uint256"
        }
      ],
      "name": "removeViewerGroup",
      "outputs": [],
      "payable": false,
      "stateMutability": "nonpayable",
      "type": "function"
    },
    {
      "constant": false,
      "inputs": [
        {
          "name": "name",
          "type": "string"
        },
        {
          "name": "viewerGroup",
          "type": "uint256"
        },
        {
          "name": "viewer",
          "type": "address"
        },
        {
          "name": "provAddr",
          "type": "string"
        }
      ],
      "name": "addViewer",
      "outputs": [],
      "payable": false,
      "stateMutability": "nonpayable",
      "type": "function"
    },
    {
      "constant": false,
      "inputs": [
        {
          "name": "viewerGroup",
          "type": "uint256"
        },
        {
          "name": "viewer",
          "type": "address"
        }
      ],
      "name": "removeViewer",
      "outputs": [],
      "payable": false,
      "stateMutability": "nonpayable",
      "type": "function"
    },
    {
      "constant": true,
      "inputs": [],
      "name": "getNumViewerGroups",
      "outputs": [
        {
          "name": "",
          "type": "uint256"
        }
      ],
      "payable": false,
      "stateMutability": "view",
      "type": "function"
    },
    {
      "constant": true,
      "inputs": [
        {
          "name": "group",
          "type": "uint256"
        }
      ],
      "name": "getNumViewers",
      "outputs": [
        {
          "name": "",
          "type": "uint256"
        }
      ],
      "payable": false,
      "stateMutability": "view",
      "type": "function"
    },
    {
      "constant": true,
      "inputs": [
        {
          "name": "group",
          "type": "uint256"
        },
        {
          "name": "index",
          "type": "uint256"
        }
      ],
      "name": "getViewer",
      "outputs": [
        {
          "name": "",
          "type": "address"
        }
      ],
      "payable": false,
      "stateMutability": "view",
      "type": "function"
    },
    {
      "constant": true,
      "inputs": [
        {
          "name": "name",
          "type": "string"
        }
      ],
      "name": "getViewerByName",
      "outputs": [
        {
          "name": "",
          "type": "address"
        }
      ],
      "payable": false,
      "stateMutability": "view",
      "type": "function"
    },
    {
      "constant": true,
      "inputs": [
        {
          "name": "addr",
          "type": "address"
        }
      ],
      "name": "getViewerName",
      "outputs": [
        {
          "name": "",
          "type": "string"
        }
      ],
      "payable": false,
      "stateMutability": "view",
      "type": "function"
    },
    {
      "constant": false,
      "inputs": [],
      "name": "terminate",
      "outputs": [],
      "payable": false,
      "stateMutability": "nonpayable",
      "type": "function"
    }
  ],
  "bytecode": "0x608060405234801561001057600080fd5b5060405160208061183583398101806040528101908080519060200190929190505050336000806101000a81548173ffffffffffffffffffffffffffffffffffffffff021916908373ffffffffffffffffffffffffffffffffffffffff16021790555080600160006101000a81548173ffffffffffffffffffffffffffffffffffffffff021916908373ffffffffffffffffffffffffffffffffffffffff16021790555050611771806100c46000396000f3006080604052600436106100f0576000357c0100000000000000000000000000000000000000000000000000000000900463ffffffff168062dad7d4146100f5578063019d8d5f14610185578063085d48831461025e5780630ba32b27146102b55780630c08bf881461030c578063231505bd146103235780632a7a832d146103b35780632bba6fb7146103f45780632f35de611461044f578063322eb71d1461047a5780633d2c886114610536578063444ee9021461059f5780637e26ea6314610608578063a9ef01901461067f578063bc1d708714610696578063d97034d51461073f578063e267eea01461076c575b600080fd5b34801561010157600080fd5b5061010a6107b9565b6040518080602001828103825283818151815260200191508051906020019080838360005b8381101561014a57808201518184015260208101905061012f565b50505050905090810190601f1680156101775780820380516001836020036101000a031916815260200191505b509250505060405180910390f35b34801561019157600080fd5b5061025c600480360381019080803590602001908201803590602001908080601f016020809104026020016040519081016040528093929190818152602001838380828437820191505050505050919291929080359060200190929190803573ffffffffffffffffffffffffffffffffffffffff169060200190929190803590602001908201803590602001908080601f0160208091040260200160405190810160405280939291908181526020018383808284378201915050505050509192919290505050610857565b005b34801561026a57600080fd5b50610273610a77565b604051808273ffffffffffffffffffffffffffffffffffffffff1673ffffffffffffffffffffffffffffffffffffffff16815260200191505060405180910390f35b3480156102c157600080fd5b506102ca610a9d565b604051808273ffffffffffffffffffffffffffffffffffffffff1673ffffffffffffffffffffffffffffffffffffffff16815260200191505060405180910390f35b34801561031857600080fd5b50610321610ac2565b005b34801561032f57600080fd5b50610338610bb1565b6040518080602001828103825283818151815260200191508051906020019080838360005b8381101561037857808201518184015260208101905061035d565b50505050905090810190601f1680156103a55780820380516001836020036101000a031916815260200191505b509250505060405180910390f35b3480156103bf57600080fd5b506103de60048036038101908080359060200190929190505050610c4f565b6040518082815260200191505060405180910390f35b34801561040057600080fd5b50610435600480360381019080803573ffffffffffffffffffffffffffffffffffffffff169060200190929190505050610c75565b604051808215151515815260200191505060405180910390f35b34801561045b57600080fd5b50610464610c95565b6040518082815260200191505060405180910390f35b34801561048657600080fd5b506104bb600480360381019080803573ffffffffffffffffffffffffffffffffffffffff169060200190929190505050610ca2565b6040518080602001828103825283818151815260200191508051906020019080838360005b838110156104fb5780820151818401526020810190506104e0565b50505050905090810190601f1680156105285780820380516001836020036101000a031916815260200191505b509250505060405180910390f35b34801561054257600080fd5b5061059d600480360381019080803590602001908201803590602001908080601f0160208091040260200160405190810160405280939291908181526020018383808284378201915050505050509192919290505050610d86565b005b3480156105ab57600080fd5b50610606600480360381019080803590602001908201803590602001908080601f0160208091040260200160405190810160405280939291908181526020018383808284378201915050505050509192919290505050610da0565b005b34801561061457600080fd5b5061063d6004803603810190808035906020019092919080359060200190929190505050610dba565b604051808273ffffffffffffffffffffffffffffffffffffffff1673ffffffffffffffffffffffffffffffffffffffff16815260200191505060405180910390f35b34801561068b57600080fd5b50610694610e15565b005b3480156106a257600080fd5b506106fd600480360381019080803590602001908201803590602001908080601f0160208091040260200160405190810160405280939291908181526020018383808284378201915050505050509192919290505050610e8b565b604051808273ffffffffffffffffffffffffffffffffffffffff1673ffffffffffffffffffffffffffffffffffffffff16815260200191505060405180910390f35b34801561074b57600080fd5b5061076a60048036038101908080359060200190929190505050610f20565b005b34801561077857600080fd5b506107b760048036038101908080359060200190929190803573ffffffffffffffffffffffffffffffffffffffff169060200190929190505050611110565b005b60038054600181600116156101000203166002900480601f01602080910402602001604051908101604052809291908181526020018280546001816001161561010002031660029004801561084f5780601f106108245761010080835404028352916020019161084f565b820191906000526020600020905b81548152906001019060200180831161083257829003601f168201915b505050505081565b6000809054906101000a900473ffffffffffffffffffffffffffffffffffffffff1673ffffffffffffffffffffffffffffffffffffffff163373ffffffffffffffffffffffffffffffffffffffff161415156108b257600080fd5b600560008373ffffffffffffffffffffffffffffffffffffffff1673ffffffffffffffffffffffffffffffffffffffff16815260200190815260200160002060009054906101000a900460ff1615151561090b57600080fd5b6001600560008473ffffffffffffffffffffffffffffffffffffffff1673ffffffffffffffffffffffffffffffffffffffff16815260200190815260200160002060006101000a81548160ff02191690831515021790555060048381548110151561097257fe5b906000526020600020018290806001815401808255809150509060018203906000526020600020016000909192909190916101000a81548173ffffffffffffffffffffffffffffffffffffffff021916908373ffffffffffffffffffffffffffffffffffffffff16021790555050604080519081016040528085815260200182815250600660008473ffffffffffffffffffffffffffffffffffffffff1673ffffffffffffffffffffffffffffffffffffffff1681526020019081526020016000206000820151816000019080519060200190610a5092919061149e565b506020820151816001019080519060200190610a6d92919061149e565b5090505050505050565b600160009054906101000a900473ffffffffffffffffffffffffffffffffffffffff1681565b6000809054906101000a900473ffffffffffffffffffffffffffffffffffffffff1681565b6000809054906101000a900473ffffffffffffffffffffffffffffffffffffffff1673ffffffffffffffffffffffffffffffffffffffff163373ffffffffffffffffffffffffffffffffffffffff1614158015610b6d5750600160009054906101000a900473ffffffffffffffffffffffffffffffffffffffff1673ffffffffffffffffffffffffffffffffffffffff163373ffffffffffffffffffffffffffffffffffffffff1614155b15610b7757600080fd5b6000809054906101000a900473ffffffffffffffffffffffffffffffffffffffff1673ffffffffffffffffffffffffffffffffffffffff16ff5b60028054600181600116156101000203166002900480601f016020809104026020016040519081016040528092919081815260200182805460018160011615610100020316600290048015610c475780601f10610c1c57610100808354040283529160200191610c47565b820191906000526020600020905b815481529060010190602001808311610c2a57829003601f168201915b505050505081565b6000600482815481101515610c6057fe5b90600052602060002001805490509050919050565b60056020528060005260406000206000915054906101000a900460ff1681565b6000600480549050905090565b6060600660008373ffffffffffffffffffffffffffffffffffffffff1673ffffffffffffffffffffffffffffffffffffffff1681526020019081526020016000206000018054600181600116156101000203166002900480601f016020809104026020016040519081016040528092919081815260200182805460018160011615610100020316600290048015610d7a5780601f10610d4f57610100808354040283529160200191610d7a565b820191906000526020600020905b815481529060010190602001808311610d5d57829003601f168201915b50505050509050919050565b8060029080519060200190610d9c92919061151e565b5050565b8060039080519060200190610db692919061151e565b5050565b6000600483815481101515610dcb57fe5b9060005260206000200182815481101515610de257fe5b9060005260206000200160009054906101000a900473ffffffffffffffffffffffffffffffffffffffff16905092915050565b6000809054906101000a900473ffffffffffffffffffffffffffffffffffffffff1673ffffffffffffffffffffffffffffffffffffffff163373ffffffffffffffffffffffffffffffffffffffff16141515610e7057600080fd5b6001600481818054905001915081610e88919061159e565b50565b60006007826040518082805190602001908083835b602083101515610ec55780518252602082019150602081019050602083039250610ea0565b6001836020036101000a038019825116818451168082178552505050505050905001915050908152602001604051809103902060009054906101000a900473ffffffffffffffffffffffffffffffffffffffff169050919050565b60008060008060009054906101000a900473ffffffffffffffffffffffffffffffffffffffff1673ffffffffffffffffffffffffffffffffffffffff163373ffffffffffffffffffffffffffffffffffffffff16141515610f8057600080fd5b600484815481101515610f8f57fe5b90600052602060002001805490509250600091505b8282101561106157600060056000600487815481101515610fc157fe5b9060005260206000200185815481101515610fd857fe5b9060005260206000200160009054906101000a900473ffffffffffffffffffffffffffffffffffffffff1673ffffffffffffffffffffffffffffffffffffffff1673ffffffffffffffffffffffffffffffffffffffff16815260200190815260200160002060006101000a81548160ff0219169083151502179055508180600101925050610fa4565b60048054905090506001840191505b808210156110c95760048281548110151561108757fe5b906000526020600020016004600184038154811015156110a357fe5b906000526020600020019080546110bb9291906115ca565b508180600101925050611070565b6004600182038154811015156110db57fe5b9060005260206000200160006110f1919061161c565b6001600481818054905003915081611109919061159e565b5050505050565b60008060008060009054906101000a900473ffffffffffffffffffffffffffffffffffffffff1673ffffffffffffffffffffffffffffffffffffffff163373ffffffffffffffffffffffffffffffffffffffff1614151561117057600080fd5b600560008573ffffffffffffffffffffffffffffffffffffffff1673ffffffffffffffffffffffffffffffffffffffff16815260200190815260200160002060009054906101000a900460ff1615156111c857600080fd5b6000600560008673ffffffffffffffffffffffffffffffffffffffff1673ffffffffffffffffffffffffffffffffffffffff16815260200190815260200160002060006101000a81548160ff02191690831515021790555060048581548110151561122f57fe5b9060005260206000200180549050925060009150600090505b828110156113af5781156113195760048581548110151561126557fe5b906000526020600020018181548110151561127c57fe5b9060005260206000200160009054906101000a900473ffffffffffffffffffffffffffffffffffffffff166004868154811015156112b657fe5b90600052602060002001600183038154811015156112d057fe5b9060005260206000200160006101000a81548173ffffffffffffffffffffffffffffffffffffffff021916908373ffffffffffffffffffffffffffffffffffffffff1602179055505b8373ffffffffffffffffffffffffffffffffffffffff1660048681548110151561133f57fe5b906000526020600020018281548110151561135657fe5b9060005260206000200160009054906101000a900473ffffffffffffffffffffffffffffffffffffffff1673ffffffffffffffffffffffffffffffffffffffff1614156113a257600191505b8080600101915050611248565b6004858154811015156113be57fe5b90600052602060002001600184038154811015156113d857fe5b9060005260206000200160006101000a81549073ffffffffffffffffffffffffffffffffffffffff0219169055600160048681548110151561141657fe5b9060005260206000200181818054905003915081611434919061163d565b50600660008573ffffffffffffffffffffffffffffffffffffffff1673ffffffffffffffffffffffffffffffffffffffff168152602001908152602001600020600080820160006114859190611669565b6001820160006114959190611669565b50505050505050565b828054600181600116156101000203166002900490600052602060002090601f016020900481019282601f106114df57805160ff191683800117855561150d565b8280016001018555821561150d579182015b8281111561150c5782518255916020019190600101906114f1565b5b50905061151a91906116b1565b5090565b828054600181600116156101000203166002900490600052602060002090601f016020900481019282601f1061155f57805160ff191683800117855561158d565b8280016001018555821561158d579182015b8281111561158c578251825591602001919060010190611571565b5b50905061159a91906116b1565b5090565b8154818355818111156115c5578183600052602060002091820191016115c491906116d6565b5b505050565b82805482825590600052602060002090810192821561160b5760005260206000209182015b8281111561160a5782548255916001019190600101906115ef565b5b5090506116189190611702565b5090565b508054600082559060005260206000209081019061163a91906116b1565b50565b8154818355818111156116645781836000526020600020918201910161166391906116b1565b5b505050565b50805460018160011615610100020316600290046000825580601f1061168f57506116ae565b601f0160209004906000526020600020908101906116ad91906116b1565b5b50565b6116d391905b808211156116cf5760008160009055506001016116b7565b5090565b90565b6116ff91905b808211156116fb57600081816116f2919061161c565b506001016116dc565b5090565b90565b61174291905b8082111561173e57600081816101000a81549073ffffffffffffffffffffffffffffffffffffffff021916905550600101611708565b5090565b905600a165627a7a72305820cea3b8e4adc2d505aca93b2945f5709d72ce4ca4891f54baf2426a42d80fa57d0029",
  "source": "pragma solidity ^0.4.0;\r\n\r\ncontract Relationship {\r\n    address public patron;\r\n    address public provider;\r\n    string public providerAddr;\r\n    string public providerName;\r\n\r\n    struct Viewer {\r\n        string name;\r\n        string providerAddr;\r\n    }\r\n\r\n    address[][] viewerGroups;\r\n    mapping(address => bool) public isViewer;\r\n    mapping(address => Viewer) viewerInfo;\r\n    mapping(string => address) viewerByName;\r\n\r\n    uint256 constant UINT256_MAX = ~uint256(0);\r\n\r\n    modifier isPatron() {\r\n        if (msg.sender != patron) revert();\r\n        _;\r\n    }\r\n\r\n    constructor(address _provider) public {\r\n        patron = msg.sender;\r\n        provider = _provider;\r\n    }\r\n\r\n    function setProviderAddress(string addr) public {\r\n        providerAddr = addr;\r\n    }\r\n\r\n    function setProviderName(string name) public {\r\n        providerName = name;\r\n    }\r\n\r\n    function addViewerGroup() public isPatron {\r\n        viewerGroups.length += 1;\r\n    }\r\n\r\n    function removeViewerGroup(uint256 viewerGroup) public isPatron {\r\n        uint256 numViewers = viewerGroups[viewerGroup].length;\r\n        uint256 i;\r\n        for (i = 0; i < numViewers; i++) {\r\n            isViewer[viewerGroups[viewerGroup][i]] = false;\r\n        }\r\n\r\n        uint256 numGroups = viewerGroups.length;\r\n        for (i = viewerGroup + 1; i < numGroups; i++) {\r\n            viewerGroups[i - 1] = viewerGroups[i];\r\n        }\r\n        delete (viewerGroups[numGroups - 1]);\r\n        viewerGroups.length -= 1;\r\n    }\r\n\r\n    function addViewer(\r\n        string name,\r\n        uint256 viewerGroup,\r\n        address viewer,\r\n        string provAddr\r\n    ) public isPatron {\r\n        require(!isViewer[viewer]);\r\n\r\n        isViewer[viewer] = true;\r\n        viewerGroups[viewerGroup].push(viewer);\r\n        viewerInfo[viewer] = Viewer(name, provAddr);\r\n    }\r\n\r\n    function removeViewer(uint256 viewerGroup, address viewer) public isPatron {\r\n        require(isViewer[viewer]);\r\n\r\n        isViewer[viewer] = false;\r\n        uint256 numViewers = viewerGroups[viewerGroup].length;\r\n        bool overwrite = false;\r\n\r\n        for (uint256 i = 0; i < numViewers; i++) {\r\n            if (overwrite) {\r\n                viewerGroups[viewerGroup][i - 1] = viewerGroups[viewerGroup][i];\r\n            }\r\n\r\n            if (viewerGroups[viewerGroup][i] == viewer) {\r\n                overwrite = true;\r\n            }\r\n        }\r\n        delete (viewerGroups[viewerGroup][numViewers - 1]);\r\n        viewerGroups[viewerGroup].length -= 1;\r\n        delete (viewerInfo[viewer]);\r\n    }\r\n\r\n    function getNumViewerGroups() public constant returns (uint256) {\r\n        return viewerGroups.length;\r\n    }\r\n\r\n    function getNumViewers(uint256 group) public constant returns (uint256) {\r\n        return viewerGroups[group].length;\r\n    }\r\n\r\n    function getViewer(uint256 group, uint256 index)\r\n        public\r\n        constant\r\n        returns (address)\r\n    {\r\n        return viewerGroups[group][index];\r\n    }\r\n\r\n    function getViewerByName(string name) public constant returns (address) {\r\n        return viewerByName[name];\r\n    }\r\n\r\n    function getViewerName(address addr) public constant returns (string) {\r\n        return viewerInfo[addr].name;\r\n    }\r\n\r\n    function terminate() public {\r\n        if (msg.sender != patron && msg.sender != provider) revert();\r\n        selfdestruct(patron);\r\n    }\r\n}\r\n",
  "sourcePath": "C:\\Projects\\Programming\\2021\\blockchain-medical-record\\src\\contracts\\Relationship.sol",
  "compiler": {
    "name": "solc",
    "version": "0.4.26+commit.4563c3fc.Emscripten.clang"
  },
  "schemaVersion": "3.4.6",
  "updatedAt": "2022-03-29T05:22:15.361Z",
  "networkType": "ethereum",
  "devdoc": {
    "methods": {}
  },
  "userdoc": {
    "methods": {}
  }
}