{
  "contractName": "AgentGroup",
  "abi": [
    {
      "constant": true,
      "inputs": [
        {
          "name": "",
          "type": "uint256"
        }
      ],
      "name": "agents",
      "outputs": [
        {
          "name": "",
          "type": "address"
        }
      ],
      "payable": false,
      "stateMutability": "view",
      "type": "function"
    },
    {
      "inputs": [],
      "payable": false,
      "stateMutability": "nonpayable",
      "type": "constructor"
    },
    {
      "constant": false,
      "inputs": [
        {
          "name": "addr",
          "type": "address"
        }
      ],
      "name": "addAgent",
      "outputs": [],
      "payable": false,
      "stateMutability": "nonpayable",
      "type": "function"
    },
    {
      "constant": false,
      "inputs": [
        {
          "name": "addr",
          "type": "address"
        }
      ],
      "name": "removeAgent",
      "outputs": [],
      "payable": false,
      "stateMutability": "nonpayable",
      "type": "function"
    },
    {
      "constant": true,
      "inputs": [],
      "name": "getNumAgents",
      "outputs": [
        {
          "name": "",
          "type": "uint256"
        }
      ],
      "payable": false,
      "stateMutability": "view",
      "type": "function"
    }
  ],
  "bytecode": "0x608060405234801561001057600080fd5b5060003390806001815401808255809150509060018203906000526020600020016000909192909190916101000a81548173ffffffffffffffffffffffffffffffffffffffff021916908373ffffffffffffffffffffffffffffffffffffffff160217905550506105ac806100866000396000f300608060405260043610610062576000357c0100000000000000000000000000000000000000000000000000000000900463ffffffff168063513856c81461006757806384e79842146100d457806397a6278e14610117578063dc7926461461015a575b600080fd5b34801561007357600080fd5b5061009260048036038101908080359060200190929190505050610185565b604051808273ffffffffffffffffffffffffffffffffffffffff1673ffffffffffffffffffffffffffffffffffffffff16815260200191505060405180910390f35b3480156100e057600080fd5b50610115600480360381019080803573ffffffffffffffffffffffffffffffffffffffff1690602001909291905050506101c3565b005b34801561012357600080fd5b50610158600480360381019080803573ffffffffffffffffffffffffffffffffffffffff1690602001909291905050506102d2565b005b34801561016657600080fd5b5061016f610523565b6040518082815260200191505060405180910390f35b60008181548110151561019457fe5b906000526020600020016000915054906101000a900473ffffffffffffffffffffffffffffffffffffffff1681565b600080600090505b60008054905081101561025b576000818154811015156101e757fe5b9060005260206000200160009054906101000a900473ffffffffffffffffffffffffffffffffffffffff1673ffffffffffffffffffffffffffffffffffffffff163373ffffffffffffffffffffffffffffffffffffffff16141561024e576001915061025b565b80806001019150506101cb565b81151561026757600080fd5b60008390806001815401808255809150509060018203906000526020600020016000909192909190916101000a81548173ffffffffffffffffffffffffffffffffffffffff021916908373ffffffffffffffffffffffffffffffffffffffff16021790555050505050565b600080600080600090505b60008054905081101561036d576000818154811015156102f957fe5b9060005260206000200160009054906101000a900473ffffffffffffffffffffffffffffffffffffffff1673ffffffffffffffffffffffffffffffffffffffff163373ffffffffffffffffffffffffffffffffffffffff161415610360576001915061036d565b80806001019150506102dd565b81151561037957600080fd5b60009350600092505b6000805490508310156104a957831561042a576000838154811015156103a457fe5b9060005260206000200160009054906101000a900473ffffffffffffffffffffffffffffffffffffffff166000600185038154811015156103e157fe5b9060005260206000200160006101000a81548173ffffffffffffffffffffffffffffffffffffffff021916908373ffffffffffffffffffffffffffffffffffffffff1602179055505b8473ffffffffffffffffffffffffffffffffffffffff1660008481548110151561045057fe5b9060005260206000200160009054906101000a900473ffffffffffffffffffffffffffffffffffffffff1673ffffffffffffffffffffffffffffffffffffffff16141561049c57600193505b8280600101935050610382565b60006001600080549050038154811015156104c057fe5b9060005260206000200160006101000a81549073ffffffffffffffffffffffffffffffffffffffff02191690556001600081818054905003915081610505919061052f565b506000610510610523565b11151561051c57600080fd5b5050505050565b60008080549050905090565b81548183558181111561055657818360005260206000209182019101610555919061055b565b5b505050565b61057d91905b80821115610579576000816000905550600101610561565b5090565b905600a165627a7a72305820e3cc338c57da1f958f4452b8a31be66c0d704a3ae55d182b033dce9c743ca5f70029",
  "source": "pragma solidity ^0.4.0;\r\n\r\ncontract AgentGroup {\r\n    address[] public agents;\r\n\r\n    modifier isOwner() {\r\n        bool enable;\r\n        for (uint256 i = 0; i < agents.length; i++) {\r\n            if (msg.sender == agents[i]) {\r\n                enable = true;\r\n                break;\r\n            }\r\n        }\r\n        if (!enable) revert();\r\n        _;\r\n    }\r\n\r\n    constructor() public {\r\n        agents.push(msg.sender);\r\n    }\r\n\r\n    function addAgent(address addr) public isOwner {\r\n        agents.push(addr);\r\n    }\r\n\r\n    function removeAgent(address addr) public isOwner {\r\n        bool overwrite = false;\r\n        for (uint256 i = 0; i < agents.length; i++) {\r\n            if (overwrite) {\r\n                agents[i - 1] = agents[i];\r\n            }\r\n            if (agents[i] == addr) {\r\n                overwrite = true;\r\n            }\r\n        }\r\n        delete (agents[agents.length - 1]);\r\n        agents.length -= 1;\r\n        require(getNumAgents() > 0);\r\n    }\r\n\r\n    function getNumAgents() public constant returns (uint256) {\r\n        return agents.length;\r\n    }\r\n}\r\n",
  "sourcePath": "D:\\Projects\\Programming\\blockchain-medical-record\\contracts\\AgentGroup.sol",
  "compiler": {
    "name": "solc",
    "version": "0.4.26+commit.4563c3fc.Emscripten.clang"
  },
  "schemaVersion": "3.4.4",
  "updatedAt": "2022-02-17T02:14:25.990Z",
  "devdoc": {
    "methods": {}
  },
  "userdoc": {
    "methods": {}
  }
}