{
  "contractName": "AgentRegistry",
  "abi": [
    {
      "constant": true,
      "inputs": [
        {
          "name": "",
          "type": "address"
        }
      ],
      "name": "isProspective",
      "outputs": [
        {
          "name": "",
          "type": "bool"
        }
      ],
      "payable": false,
      "stateMutability": "view",
      "type": "function"
    },
    {
      "constant": true,
      "inputs": [
        {
          "name": "",
          "type": "address"
        }
      ],
      "name": "isKicked",
      "outputs": [
        {
          "name": "",
          "type": "bool"
        }
      ],
      "payable": false,
      "stateMutability": "view",
      "type": "function"
    },
    {
      "constant": true,
      "inputs": [
        {
          "name": "",
          "type": "address"
        }
      ],
      "name": "isSigner",
      "outputs": [
        {
          "name": "",
          "type": "bool"
        }
      ],
      "payable": false,
      "stateMutability": "view",
      "type": "function"
    },
    {
      "constant": true,
      "inputs": [
        {
          "name": "",
          "type": "address"
        }
      ],
      "name": "agentFromContract",
      "outputs": [
        {
          "name": "",
          "type": "address"
        }
      ],
      "payable": false,
      "stateMutability": "view",
      "type": "function"
    },
    {
      "anonymous": false,
      "inputs": [
        {
          "indexed": true,
          "name": "addr",
          "type": "address"
        }
      ],
      "name": "AddSigner",
      "type": "event"
    },
    {
      "anonymous": false,
      "inputs": [
        {
          "indexed": true,
          "name": "addr",
          "type": "address"
        }
      ],
      "name": "RemoveSigner",
      "type": "event"
    },
    {
      "constant": false,
      "inputs": [
        {
          "name": "name",
          "type": "string"
        }
      ],
      "name": "propose",
      "outputs": [],
      "payable": false,
      "stateMutability": "nonpayable",
      "type": "function"
    },
    {
      "constant": false,
      "inputs": [
        {
          "name": "rip",
          "type": "address"
        }
      ],
      "name": "kick",
      "outputs": [],
      "payable": false,
      "stateMutability": "nonpayable",
      "type": "function"
    },
    {
      "constant": false,
      "inputs": [
        {
          "name": "prospective",
          "type": "address"
        }
      ],
      "name": "rescind",
      "outputs": [],
      "payable": false,
      "stateMutability": "nonpayable",
      "type": "function"
    },
    {
      "constant": false,
      "inputs": [
        {
          "name": "prospective",
          "type": "address"
        },
        {
          "name": "value",
          "type": "bool"
        }
      ],
      "name": "vote",
      "outputs": [],
      "payable": false,
      "stateMutability": "nonpayable",
      "type": "function"
    },
    {
      "constant": true,
      "inputs": [
        {
          "name": "name",
          "type": "string"
        }
      ],
      "name": "getAgentByName",
      "outputs": [
        {
          "name": "",
          "type": "address"
        }
      ],
      "payable": false,
      "stateMutability": "view",
      "type": "function"
    },
    {
      "constant": true,
      "inputs": [
        {
          "name": "addr",
          "type": "address"
        }
      ],
      "name": "getAgentName",
      "outputs": [
        {
          "name": "",
          "type": "string"
        }
      ],
      "payable": false,
      "stateMutability": "view",
      "type": "function"
    },
    {
      "constant": true,
      "inputs": [
        {
          "name": "addr",
          "type": "address"
        }
      ],
      "name": "getAgentContractAddr",
      "outputs": [
        {
          "name": "",
          "type": "address"
        }
      ],
      "payable": false,
      "stateMutability": "view",
      "type": "function"
    },
    {
      "constant": true,
      "inputs": [
        {
          "name": "addr",
          "type": "address"
        }
      ],
      "name": "getAgentHost",
      "outputs": [
        {
          "name": "",
          "type": "string"
        }
      ],
      "payable": false,
      "stateMutability": "view",
      "type": "function"
    },
    {
      "constant": true,
      "inputs": [],
      "name": "getNumSigners",
      "outputs": [
        {
          "name": "",
          "type": "uint256"
        }
      ],
      "payable": false,
      "stateMutability": "view",
      "type": "function"
    },
    {
      "constant": true,
      "inputs": [
        {
          "name": "idx",
          "type": "uint256"
        }
      ],
      "name": "getSigner",
      "outputs": [
        {
          "name": "",
          "type": "address"
        }
      ],
      "payable": false,
      "stateMutability": "view",
      "type": "function"
    },
    {
      "constant": true,
      "inputs": [
        {
          "name": "prospective",
          "type": "address"
        }
      ],
      "name": "getNumVoters",
      "outputs": [
        {
          "name": "",
          "type": "uint256"
        }
      ],
      "payable": false,
      "stateMutability": "view",
      "type": "function"
    },
    {
      "constant": true,
      "inputs": [
        {
          "name": "prospective",
          "type": "address"
        },
        {
          "name": "idx",
          "type": "uint256"
        }
      ],
      "name": "getVoter",
      "outputs": [
        {
          "name": "",
          "type": "address"
        }
      ],
      "payable": false,
      "stateMutability": "view",
      "type": "function"
    },
    {
      "constant": true,
      "inputs": [
        {
          "name": "prospective",
          "type": "address"
        },
        {
          "name": "signer",
          "type": "address"
        }
      ],
      "name": "getVoteInfo",
      "outputs": [
        {
          "name": "",
          "type": "bool"
        }
      ],
      "payable": false,
      "stateMutability": "view",
      "type": "function"
    },
    {
      "constant": true,
      "inputs": [
        {
          "name": "prospective",
          "type": "address"
        }
      ],
      "name": "getNumYayVotes",
      "outputs": [
        {
          "name": "",
          "type": "uint256"
        }
      ],
      "payable": false,
      "stateMutability": "view",
      "type": "function"
    },
    {
      "constant": true,
      "inputs": [],
      "name": "getNumProspectives",
      "outputs": [
        {
          "name": "",
          "type": "uint256"
        }
      ],
      "payable": false,
      "stateMutability": "view",
      "type": "function"
    },
    {
      "constant": true,
      "inputs": [
        {
          "name": "idx",
          "type": "uint256"
        }
      ],
      "name": "getProspective",
      "outputs": [
        {
          "name": "",
          "type": "address"
        }
      ],
      "payable": false,
      "stateMutability": "view",
      "type": "function"
    },
    {
      "constant": true,
      "inputs": [],
      "name": "getNumKicked",
      "outputs": [
        {
          "name": "",
          "type": "uint256"
        }
      ],
      "payable": false,
      "stateMutability": "view",
      "type": "function"
    },
    {
      "constant": true,
      "inputs": [
        {
          "name": "idx",
          "type": "uint256"
        }
      ],
      "name": "getKicked",
      "outputs": [
        {
          "name": "",
          "type": "address"
        }
      ],
      "payable": false,
      "stateMutability": "view",
      "type": "function"
    },
    {
      "constant": true,
      "inputs": [
        {
          "name": "prospective",
          "type": "address"
        }
      ],
      "name": "getProposer",
      "outputs": [
        {
          "name": "",
          "type": "address"
        }
      ],
      "payable": false,
      "stateMutability": "view",
      "type": "function"
    }
  ],
  "bytecode": "0x608060405234801561001057600080fd5b50612869806100206000396000f300608060405260043610610133576000357c0100000000000000000000000000000000000000000000000000000000900463ffffffff16806309475e49146101385780630c99e458146101f45780633ffefe4e1461024f5780634e2bd9ce146102bc57806351a3d71a146102ff57806352dca1741461036c578063563abf6514610397578063644c3668146103c25780636a9cea531461043d5780636e5e865f146104aa5780637c8160a51461052d5780637df73e27146105885780637ffe3a65146105e3578063851a974c1461063a57806396c55175146106bd578063aa98df3914610700578063b0034f0f14610769578063bd041c4d14610812578063c606239214610861578063cbd69b461461091d578063d453f9e514610974578063d4dc4a4b14610a01578063d947a1c814610a84575b600080fd5b34801561014457600080fd5b50610179600480360381019080803573ffffffffffffffffffffffffffffffffffffffff169060200190929190505050610aaf565b6040518080602001828103825283818151815260200191508051906020019080838360005b838110156101b957808201518184015260208101905061019e565b50505050905090810190601f1680156101e65780820380516001836020036101000a031916815260200191505b509250505060405180910390f35b34801561020057600080fd5b50610235600480360381019080803573ffffffffffffffffffffffffffffffffffffffff169060200190929190505050610b92565b604051808215151515815260200191505060405180910390f35b34801561025b57600080fd5b5061027a60048036038101908080359060200190929190505050610bb2565b604051808273ffffffffffffffffffffffffffffffffffffffff1673ffffffffffffffffffffffffffffffffffffffff16815260200191505060405180910390f35b3480156102c857600080fd5b506102fd600480360381019080803573ffffffffffffffffffffffffffffffffffffffff169060200190929190505050610bf5565b005b34801561030b57600080fd5b5061032a60048036038101908080359060200190929190505050610c9a565b604051808273ffffffffffffffffffffffffffffffffffffffff1673ffffffffffffffffffffffffffffffffffffffff16815260200191505060405180910390f35b34801561037857600080fd5b50610381610cdd565b6040518082815260200191505060405180910390f35b3480156103a357600080fd5b506103ac610cea565b6040518082815260200191505060405180910390f35b3480156103ce57600080fd5b50610423600480360381019080803573ffffffffffffffffffffffffffffffffffffffff169060200190929190803573ffffffffffffffffffffffffffffffffffffffff169060200190929190505050610cf7565b604051808215151515815260200191505060405180910390f35b34801561044957600080fd5b5061046860048036038101908080359060200190929190505050610d8b565b604051808273ffffffffffffffffffffffffffffffffffffffff1673ffffffffffffffffffffffffffffffffffffffff16815260200191505060405180910390f35b3480156104b657600080fd5b506104eb600480360381019080803573ffffffffffffffffffffffffffffffffffffffff169060200190929190505050610dce565b604051808273ffffffffffffffffffffffffffffffffffffffff1673ffffffffffffffffffffffffffffffffffffffff16815260200191505060405180910390f35b34801561053957600080fd5b5061056e600480360381019080803573ffffffffffffffffffffffffffffffffffffffff169060200190929190505050610e39565b604051808215151515815260200191505060405180910390f35b34801561059457600080fd5b506105c9600480360381019080803573ffffffffffffffffffffffffffffffffffffffff169060200190929190505050610e59565b604051808215151515815260200191505060405180910390f35b3480156105ef57600080fd5b50610624600480360381019080803573ffffffffffffffffffffffffffffffffffffffff169060200190929190505050610e79565b6040518082815260200191505060405180910390f35b34801561064657600080fd5b5061067b600480360381019080803573ffffffffffffffffffffffffffffffffffffffff169060200190929190505050610ec5565b604051808273ffffffffffffffffffffffffffffffffffffffff1673ffffffffffffffffffffffffffffffffffffffff16815260200191505060405180910390f35b3480156106c957600080fd5b506106fe600480360381019080803573ffffffffffffffffffffffffffffffffffffffff169060200190929190505050610f2e565b005b34801561070c57600080fd5b50610767600480360381019080803590602001908201803590602001908080601f0160208091040260200160405190810160405280939291908181526020018383808284378201915050505050509192919290505050611129565b005b34801561077557600080fd5b506107d0600480360381019080803590602001908201803590602001908080601f0160208091040260200160405190810160405280939291908181526020018383808284378201915050505050509192919290505050611434565b604051808273ffffffffffffffffffffffffffffffffffffffff1673ffffffffffffffffffffffffffffffffffffffff16815260200191505060405180910390f35b34801561081e57600080fd5b5061085f600480360381019080803573ffffffffffffffffffffffffffffffffffffffff1690602001909291908035151590602001909291905050506114c9565b005b34801561086d57600080fd5b506108a2600480360381019080803573ffffffffffffffffffffffffffffffffffffffff169060200190929190505050611dfa565b6040518080602001828103825283818151815260200191508051906020019080838360005b838110156108e25780820151818401526020810190506108c7565b50505050905090810190601f16801561090f5780820380516001836020036101000a031916815260200191505b509250505060405180910390f35b34801561092957600080fd5b5061095e600480360381019080803573ffffffffffffffffffffffffffffffffffffffff169060200190929190505050611edd565b6040518082815260200191505060405180910390f35b34801561098057600080fd5b506109bf600480360381019080803573ffffffffffffffffffffffffffffffffffffffff16906020019092919080359060200190929190505050611f26565b604051808273ffffffffffffffffffffffffffffffffffffffff1673ffffffffffffffffffffffffffffffffffffffff16815260200191505060405180910390f35b348015610a0d57600080fd5b50610a42600480360381019080803573ffffffffffffffffffffffffffffffffffffffff169060200190929190505050611fa7565b604051808273ffffffffffffffffffffffffffffffffffffffff1673ffffffffffffffffffffffffffffffffffffffff16815260200191505060405180910390f35b348015610a9057600080fd5b50610a99611fda565b6040518082815260200191505060405180910390f35b60606000808373ffffffffffffffffffffffffffffffffffffffff1673ffffffffffffffffffffffffffffffffffffffff1681526020019081526020016000206002018054600181600116156101000203166002900480601f016020809104026020016040519081016040528092919081815260200182805460018160011615610100020316600290048015610b865780601f10610b5b57610100808354040283529160200191610b86565b820191906000526020600020905b815481529060010190602001808311610b6957829003601f168201915b50505050509050919050565b600b6020528060005260406000206000915054906101000a900460ff1681565b6000600382815481101515610bc357fe5b9060005260206000200160009054906101000a900473ffffffffffffffffffffffffffffffffffffffff169050919050565b3373ffffffffffffffffffffffffffffffffffffffff16600d60008373ffffffffffffffffffffffffffffffffffffffff1673ffffffffffffffffffffffffffffffffffffffff16815260200190815260200160002060009054906101000a900473ffffffffffffffffffffffffffffffffffffffff1673ffffffffffffffffffffffffffffffffffffffff16141515610c8e57600080fd5b610c9781611fe7565b50565b6000600a82815481101515610cab57fe5b9060005260206000200160009054906101000a900473ffffffffffffffffffffffffffffffffffffffff169050919050565b6000600a80549050905090565b6000600380549050905090565b6000600760008473ffffffffffffffffffffffffffffffffffffffff1673ffffffffffffffffffffffffffffffffffffffff16815260200190815260200160002060008373ffffffffffffffffffffffffffffffffffffffff1673ffffffffffffffffffffffffffffffffffffffff16815260200190815260200160002060009054906101000a900460ff16905092915050565b6000600982815481101515610d9c57fe5b9060005260206000200160009054906101000a900473ffffffffffffffffffffffffffffffffffffffff169050919050565b60008060008373ffffffffffffffffffffffffffffffffffffffff1673ffffffffffffffffffffffffffffffffffffffff16815260200190815260200160002060010160009054906101000a900473ffffffffffffffffffffffffffffffffffffffff169050919050565b600c6020528060005260406000206000915054906101000a900460ff1681565b60046020528060005260406000206000915054906101000a900460ff1681565b6000600560008373ffffffffffffffffffffffffffffffffffffffff1673ffffffffffffffffffffffffffffffffffffffff168152602001908152602001600020805490509050919050565b6000600d60008373ffffffffffffffffffffffffffffffffffffffff1673ffffffffffffffffffffffffffffffffffffffff16815260200190815260200160002060009054906101000a900473ffffffffffffffffffffffffffffffffffffffff169050919050565b600460003373ffffffffffffffffffffffffffffffffffffffff1673ffffffffffffffffffffffffffffffffffffffff16815260200190815260200160002060009054906101000a900460ff161515610f8657600080fd5b600c60008273ffffffffffffffffffffffffffffffffffffffff1673ffffffffffffffffffffffffffffffffffffffff16815260200190815260200160002060009054906101000a900460ff16151515610fdf57600080fd5b600a8190806001815401808255809150509060018203906000526020600020016000909192909190916101000a81548173ffffffffffffffffffffffffffffffffffffffff021916908373ffffffffffffffffffffffffffffffffffffffff160217905550506001600c60008373ffffffffffffffffffffffffffffffffffffffff1673ffffffffffffffffffffffffffffffffffffffff16815260200190815260200160002060006101000a81548160ff02191690831515021790555033600d60008373ffffffffffffffffffffffffffffffffffffffff1673ffffffffffffffffffffffffffffffffffffffff16815260200190815260200160002060006101000a81548173ffffffffffffffffffffffffffffffffffffffff021916908373ffffffffffffffffffffffffffffffffffffffff1602179055506111268160016114c9565b50565b600460003373ffffffffffffffffffffffffffffffffffffffff1673ffffffffffffffffffffffffffffffffffffffff16815260200190815260200160002060009054906101000a900460ff16151561118157600080fd5b600b60003373ffffffffffffffffffffffffffffffffffffffff1673ffffffffffffffffffffffffffffffffffffffff16815260200190815260200160002060009054906101000a900460ff161515156111da57600080fd5b3373ffffffffffffffffffffffffffffffffffffffff166001826040518082805190602001908083835b6020831015156112295780518252602082019150602081019050602083039250611204565b6001836020036101000a038019825116818451168082178552505050505050905001915050908152602001604051809103902060009054906101000a900473ffffffffffffffffffffffffffffffffffffffff1673ffffffffffffffffffffffffffffffffffffffff1614151561129f57600080fd5b60093390806001815401808255809150509060018203906000526020600020016000909192909190916101000a81548173ffffffffffffffffffffffffffffffffffffffff021916908373ffffffffffffffffffffffffffffffffffffffff160217905550506001600b60003373ffffffffffffffffffffffffffffffffffffffff1673ffffffffffffffffffffffffffffffffffffffff16815260200190815260200160002060006101000a81548160ff02191690831515021790555033600d60003373ffffffffffffffffffffffffffffffffffffffff1673ffffffffffffffffffffffffffffffffffffffff16815260200190815260200160002060006101000a81548173ffffffffffffffffffffffffffffffffffffffff021916908373ffffffffffffffffffffffffffffffffffffffff160217905550806000803373ffffffffffffffffffffffffffffffffffffffff1673ffffffffffffffffffffffffffffffffffffffff168152602001908152602001600020600001908051906020019061143092919061274b565b5050565b60006001826040518082805190602001908083835b60208310151561146e5780518252602082019150602081019050602083039250611449565b6001836020036101000a038019825116818451168082178552505050505050905001915050908152602001604051809103902060009054906101000a900473ffffffffffffffffffffffffffffffffffffffff169050919050565b600080600460003373ffffffffffffffffffffffffffffffffffffffff1673ffffffffffffffffffffffffffffffffffffffff16815260200190815260200160002060009054906101000a900460ff16151561152457600080fd5b600b60008573ffffffffffffffffffffffffffffffffffffffff1673ffffffffffffffffffffffffffffffffffffffff16815260200190815260200160002060009054906101000a900460ff16806115c55750600c60008573ffffffffffffffffffffffffffffffffffffffff1673ffffffffffffffffffffffffffffffffffffffff16815260200190815260200160002060009054906101000a900460ff165b15156115d057600080fd5b600760008573ffffffffffffffffffffffffffffffffffffffff1673ffffffffffffffffffffffffffffffffffffffff16815260200190815260200160002060003373ffffffffffffffffffffffffffffffffffffffff1673ffffffffffffffffffffffffffffffffffffffff16815260200190815260200160002060009054906101000a900460ff168015611664575082155b156116b8576001600860008673ffffffffffffffffffffffffffffffffffffffff1673ffffffffffffffffffffffffffffffffffffffff168152602001908152602001600020600082825403925050819055505b600760008573ffffffffffffffffffffffffffffffffffffffff1673ffffffffffffffffffffffffffffffffffffffff16815260200190815260200160002060003373ffffffffffffffffffffffffffffffffffffffff1673ffffffffffffffffffffffffffffffffffffffff16815260200190815260200160002060009054906101000a900460ff1615801561174c5750825b156117a0576001600860008673ffffffffffffffffffffffffffffffffffffffff1673ffffffffffffffffffffffffffffffffffffffff168152602001908152602001600020600082825401925050819055505b82600760008673ffffffffffffffffffffffffffffffffffffffff1673ffffffffffffffffffffffffffffffffffffffff16815260200190815260200160002060003373ffffffffffffffffffffffffffffffffffffffff1673ffffffffffffffffffffffffffffffffffffffff16815260200190815260200160002060006101000a81548160ff021916908315150217905550600660008573ffffffffffffffffffffffffffffffffffffffff1673ffffffffffffffffffffffffffffffffffffffff16815260200190815260200160002060003373ffffffffffffffffffffffffffffffffffffffff1673ffffffffffffffffffffffffffffffffffffffff16815260200190815260200160002060009054906101000a900460ff16151561196857600560008573ffffffffffffffffffffffffffffffffffffffff1673ffffffffffffffffffffffffffffffffffffffff1681526020019081526020016000203390806001815401808255809150509060018203906000526020600020016000909192909190916101000a81548173ffffffffffffffffffffffffffffffffffffffff021916908373ffffffffffffffffffffffffffffffffffffffff160217905550505b6001600660008673ffffffffffffffffffffffffffffffffffffffff1673ffffffffffffffffffffffffffffffffffffffff16815260200190815260200160002060003373ffffffffffffffffffffffffffffffffffffffff1673ffffffffffffffffffffffffffffffffffffffff16815260200190815260200160002060006101000a81548160ff021916908315150217905550821515611a0957611df4565b6002600160038054905001811515611a1d57fe5b04600860008673ffffffffffffffffffffffffffffffffffffffff1673ffffffffffffffffffffffffffffffffffffffff168152602001908152602001600020541015611a6957611df4565b600c60008573ffffffffffffffffffffffffffffffffffffffff1673ffffffffffffffffffffffffffffffffffffffff16815260200190815260200160002060009054906101000a900460ff1615611ce85760009150600090505b600380549050811015611beb578115611b6c57600381815481101515611ae657fe5b9060005260206000200160009054906101000a900473ffffffffffffffffffffffffffffffffffffffff16600360018303815481101515611b2357fe5b9060005260206000200160006101000a81548173ffffffffffffffffffffffffffffffffffffffff021916908373ffffffffffffffffffffffffffffffffffffffff1602179055505b8373ffffffffffffffffffffffffffffffffffffffff16600382815481101515611b9257fe5b9060005260206000200160009054906101000a900473ffffffffffffffffffffffffffffffffffffffff1673ffffffffffffffffffffffffffffffffffffffff161415611bde57600191505b8080600101915050611ac4565b6003600160038054905003815481101515611c0257fe5b9060005260206000200160006101000a81549073ffffffffffffffffffffffffffffffffffffffff02191690556001600381818054905003915081611c4791906127cb565b506000600460008673ffffffffffffffffffffffffffffffffffffffff1673ffffffffffffffffffffffffffffffffffffffff16815260200190815260200160002060006101000a81548160ff0219169083151502179055508373ffffffffffffffffffffffffffffffffffffffff167f1803740ef72fc16e647c10fe2d31cf61a1578081960c2e3fb7f5aa957e82f55060405160405180910390a2611dea565b60038490806001815401808255809150509060018203906000526020600020016000909192909190916101000a81548173ffffffffffffffffffffffffffffffffffffffff021916908373ffffffffffffffffffffffffffffffffffffffff160217905550506001600460008673ffffffffffffffffffffffffffffffffffffffff1673ffffffffffffffffffffffffffffffffffffffff16815260200190815260200160002060006101000a81548160ff0219169083151502179055508373ffffffffffffffffffffffffffffffffffffffff167f637c77a2d598a51d085d4a2413332c45a235a25ee855bf3dfcdc2c8fcf02860f60405160405180910390a25b611df384611fe7565b5b50505050565b60606000808373ffffffffffffffffffffffffffffffffffffffff1673ffffffffffffffffffffffffffffffffffffffff1681526020019081526020016000206000018054600181600116156101000203166002900480601f016020809104026020016040519081016040528092919081815260200182805460018160011615610100020316600290048015611ed15780601f10611ea657610100808354040283529160200191611ed1565b820191906000526020600020905b815481529060010190602001808311611eb457829003601f168201915b50505050509050919050565b6000600860008373ffffffffffffffffffffffffffffffffffffffff1673ffffffffffffffffffffffffffffffffffffffff168152602001908152602001600020549050919050565b6000600560008473ffffffffffffffffffffffffffffffffffffffff1673ffffffffffffffffffffffffffffffffffffffff16815260200190815260200160002082815481101515611f7457fe5b9060005260206000200160009054906101000a900473ffffffffffffffffffffffffffffffffffffffff16905092915050565b60026020528060005260406000206000915054906101000a900473ffffffffffffffffffffffffffffffffffffffff1681565b6000600980549050905090565b600080600091505b600560008473ffffffffffffffffffffffffffffffffffffffff1673ffffffffffffffffffffffffffffffffffffffff1681526020019081526020016000208054905082101561224a57600760008473ffffffffffffffffffffffffffffffffffffffff1673ffffffffffffffffffffffffffffffffffffffff1681526020019081526020016000206000600560008673ffffffffffffffffffffffffffffffffffffffff1673ffffffffffffffffffffffffffffffffffffffff168152602001908152602001600020848154811015156120c657fe5b9060005260206000200160009054906101000a900473ffffffffffffffffffffffffffffffffffffffff1673ffffffffffffffffffffffffffffffffffffffff1673ffffffffffffffffffffffffffffffffffffffff16815260200190815260200160002060006101000a81549060ff0219169055600660008473ffffffffffffffffffffffffffffffffffffffff1673ffffffffffffffffffffffffffffffffffffffff1681526020019081526020016000206000600560008673ffffffffffffffffffffffffffffffffffffffff1673ffffffffffffffffffffffffffffffffffffffff168152602001908152602001600020848154811015156121c857fe5b9060005260206000200160009054906101000a900473ffffffffffffffffffffffffffffffffffffffff1673ffffffffffffffffffffffffffffffffffffffff1673ffffffffffffffffffffffffffffffffffffffff16815260200190815260200160002060006101000a81549060ff02191690558180600101925050611fef565b600560008473ffffffffffffffffffffffffffffffffffffffff1673ffffffffffffffffffffffffffffffffffffffff168152602001908152602001600020600061229591906127f7565b600d60008473ffffffffffffffffffffffffffffffffffffffff1673ffffffffffffffffffffffffffffffffffffffff16815260200190815260200160002060006101000a81549073ffffffffffffffffffffffffffffffffffffffff0219169055600860008473ffffffffffffffffffffffffffffffffffffffff1673ffffffffffffffffffffffffffffffffffffffff1681526020019081526020016000206000905560009050600b60008473ffffffffffffffffffffffffffffffffffffffff1673ffffffffffffffffffffffffffffffffffffffff16815260200190815260200160002060009054906101000a900460ff161561256d57600b60008473ffffffffffffffffffffffffffffffffffffffff1673ffffffffffffffffffffffffffffffffffffffff16815260200190815260200160002060006101000a81549060ff0219169055600091505b60098054905082101561250b57801561248c5760098281548110151561240657fe5b9060005260206000200160009054906101000a900473ffffffffffffffffffffffffffffffffffffffff1660096001840381548110151561244357fe5b9060005260206000200160006101000a81548173ffffffffffffffffffffffffffffffffffffffff021916908373ffffffffffffffffffffffffffffffffffffffff1602179055505b8273ffffffffffffffffffffffffffffffffffffffff166009838154811015156124b257fe5b9060005260206000200160009054906101000a900473ffffffffffffffffffffffffffffffffffffffff1673ffffffffffffffffffffffffffffffffffffffff1614156124fe57600190505b81806001019250506123e4565b600960016009805490500381548110151561252257fe5b9060005260206000200160006101000a81549073ffffffffffffffffffffffffffffffffffffffff0219169055600160098181805490500391508161256791906127cb565b50612746565b600c60008473ffffffffffffffffffffffffffffffffffffffff1673ffffffffffffffffffffffffffffffffffffffff16815260200190815260200160002060006101000a81549060ff0219169055600091505b600a805490508210156126e857801561266957600a828154811015156125e357fe5b9060005260206000200160009054906101000a900473ffffffffffffffffffffffffffffffffffffffff16600a6001840381548110151561262057fe5b9060005260206000200160006101000a81548173ffffffffffffffffffffffffffffffffffffffff021916908373ffffffffffffffffffffffffffffffffffffffff1602179055505b8273ffffffffffffffffffffffffffffffffffffffff16600a8381548110151561268f57fe5b9060005260206000200160009054906101000a900473ffffffffffffffffffffffffffffffffffffffff1673ffffffffffffffffffffffffffffffffffffffff1614156126db57600190505b81806001019250506125c1565b600a6001600a80549050038154811015156126ff57fe5b9060005260206000200160006101000a81549073ffffffffffffffffffffffffffffffffffffffff02191690556001600a8181805490500391508161274491906127cb565b505b505050565b828054600181600116156101000203166002900490600052602060002090601f016020900481019282601f1061278c57805160ff19168380011785556127ba565b828001600101855582156127ba579182015b828111156127b957825182559160200191906001019061279e565b5b5090506127c79190612818565b5090565b8154818355818111156127f2578183600052602060002091820191016127f19190612818565b5b505050565b50805460008255906000526020600020908101906128159190612818565b50565b61283a91905b8082111561283657600081600090555060010161281e565b5090565b905600a165627a7a72305820846e1fd6bb42a4bee8fa6de972c9cef8559c76b6a1c2694382de5ee246334e3b0029",
  "source": "pragma solidity ^0.4.0;\r\n\r\ncontract AgentRegistry {\r\n    struct Agent {\r\n        string name;\r\n        address contractAddr;\r\n        string host;\r\n    }\r\n    mapping(address => Agent) agentInfo;\r\n    mapping(string => address) agentByName;\r\n    mapping(address => address) public agentFromContract;\r\n\r\n    address[] signers;\r\n    mapping(address => bool) public isSigner;\r\n    mapping(address => address[]) voters;\r\n    mapping(address => mapping(address => bool)) hasVoted;\r\n    mapping(address => mapping(address => bool)) voteInfo;\r\n\r\n    mapping(address => uint256) yayVotes;\r\n\r\n    address[] prospectives;\r\n    address[] kicked;\r\n    mapping(address => bool) public isProspective;\r\n    mapping(address => bool) public isKicked;\r\n\r\n    mapping(address => address) proposer;\r\n\r\n    event AddSigner(address indexed addr);\r\n    event RemoveSigner(address indexed addr);\r\n\r\n    modifier onlySigners() {\r\n        require(isSigner[msg.sender]);\r\n        _;\r\n    }\r\n\r\n    /**\r\n    constructor(\r\n        string name,\r\n        address contractAddr,\r\n        string host\r\n    ) public {}\r\n    **/\r\n\r\n    //function setAgentName(string name) public onlySigners {}\r\n\r\n    //function setAgentContractAddr(address contractAddr) public {}\r\n\r\n    //function setAgentHost(string host) public {}\r\n\r\n    function propose(string name) public onlySigners {\r\n        require(!isProspective[msg.sender]);\r\n        require(agentByName[name] == msg.sender);\r\n\r\n        prospectives.push(msg.sender);\r\n        isProspective[msg.sender] = true;\r\n        proposer[msg.sender] = msg.sender;\r\n        agentInfo[msg.sender].name = name;\r\n    }\r\n\r\n    function kick(address rip) public onlySigners {\r\n        require(!isKicked[rip]); //make sure address rip is not already kicked\r\n\r\n        kicked.push(rip); //push the address rip to list of kicked addresses\r\n        isKicked[rip] = true;\r\n        proposer[rip] = msg.sender;\r\n        vote(rip, true); //vote for rip to be kicked\r\n    }\r\n\r\n    function rescind(address prospective) public {\r\n        require(proposer[prospective] == msg.sender);\r\n        clearVotes(prospective);\r\n    }\r\n\r\n    function clearVotes(address prospective) internal {\r\n        uint256 i;\r\n        for (i = 0; i < voters[prospective].length; i++) {\r\n            delete voteInfo[prospective][voters[prospective][i]];\r\n            delete hasVoted[prospective][voters[prospective][i]];\r\n        }\r\n        delete voters[prospective];\r\n        delete proposer[prospective];\r\n        delete yayVotes[prospective];\r\n\r\n        bool overwrite = false;\r\n        if (isProspective[prospective]) {\r\n            delete isProspective[prospective];\r\n            for (i = 0; i < prospectives.length; i++) {\r\n                if (overwrite) {\r\n                    prospectives[i - 1] = prospectives[i];\r\n                }\r\n                if (prospectives[i] == prospective) {\r\n                    overwrite = true;\r\n                }\r\n            }\r\n            delete (prospectives[prospectives.length - 1]);\r\n            prospectives.length -= 1;\r\n        } else {\r\n            delete isKicked[prospective];\r\n            for (i = 0; i < kicked.length; i++) {\r\n                if (overwrite) {\r\n                    kicked[i - 1] = kicked[i];\r\n                }\r\n                if (kicked[i] == prospective) {\r\n                    overwrite = true;\r\n                }\r\n            }\r\n            delete (kicked[kicked.length - 1]);\r\n            kicked.length -= 1;\r\n        }\r\n    }\r\n\r\n    function vote(address prospective, bool value) public onlySigners {\r\n        require(isProspective[prospective] || isKicked[prospective]);\r\n\r\n        if (voteInfo[prospective][msg.sender] && !value) {\r\n            yayVotes[prospective] -= 1;\r\n        }\r\n        if (!voteInfo[prospective][msg.sender] && value) {\r\n            yayVotes[prospective] += 1;\r\n        }\r\n        voteInfo[prospective][msg.sender] = value;\r\n        if (!hasVoted[prospective][msg.sender]) {\r\n            voters[prospective].push(msg.sender);\r\n        }\r\n        hasVoted[prospective][msg.sender] = true;\r\n\r\n        if (!value) return;\r\n        if (yayVotes[prospective] < (signers.length + 1) / 2) return;\r\n        if (isKicked[prospective]) {\r\n            bool overwrite = false;\r\n            for (uint256 i = 0; i < signers.length; i++) {\r\n                if (overwrite) {\r\n                    signers[i - 1] = signers[i];\r\n                }\r\n                if (signers[i] == prospective) {\r\n                    overwrite = true;\r\n                }\r\n            }\r\n            delete (signers[signers.length - 1]);\r\n            signers.length -= 1;\r\n            isSigner[prospective] = false;\r\n            emit RemoveSigner(prospective);\r\n        } else {\r\n            signers.push(prospective);\r\n            isSigner[prospective] = true;\r\n            emit AddSigner(prospective);\r\n        }\r\n        clearVotes(prospective);\r\n    }\r\n\r\n    function getAgentByName(string name) public constant returns (address) {\r\n        return agentByName[name];\r\n    }\r\n\r\n    function getAgentName(address addr) public constant returns (string) {\r\n        return agentInfo[addr].name;\r\n    }\r\n\r\n    function getAgentContractAddr(address addr)\r\n        public\r\n        constant\r\n        returns (address)\r\n    {\r\n        return agentInfo[addr].contractAddr;\r\n    }\r\n\r\n    function getAgentHost(address addr) public constant returns (string) {\r\n        return agentInfo[addr].host;\r\n    }\r\n\r\n    function getNumSigners() public constant returns (uint256) {\r\n        return signers.length;\r\n    }\r\n\r\n    function getSigner(uint256 idx) public constant returns (address) {\r\n        return signers[idx];\r\n    }\r\n\r\n    function getNumVoters(address prospective)\r\n        public\r\n        constant\r\n        returns (uint256)\r\n    {\r\n        return voters[prospective].length;\r\n    }\r\n\r\n    function getVoter(address prospective, uint256 idx)\r\n        public\r\n        constant\r\n        returns (address)\r\n    {\r\n        return voters[prospective][idx];\r\n    }\r\n\r\n    function getVoteInfo(address prospective, address signer)\r\n        public\r\n        constant\r\n        returns (bool)\r\n    {\r\n        return voteInfo[prospective][signer];\r\n    }\r\n\r\n    function getNumYayVotes(address prospective)\r\n        public\r\n        constant\r\n        returns (uint256)\r\n    {\r\n        return yayVotes[prospective];\r\n    }\r\n\r\n    function getNumProspectives() public constant returns (uint256) {\r\n        return prospectives.length;\r\n    }\r\n\r\n    function getProspective(uint256 idx) public constant returns (address) {\r\n        return prospectives[idx];\r\n    }\r\n\r\n    function getNumKicked() public constant returns (uint256) {\r\n        return kicked.length;\r\n    }\r\n\r\n    function getKicked(uint256 idx) public constant returns (address) {\r\n        return kicked[idx];\r\n    }\r\n\r\n    function getProposer(address prospective)\r\n        public\r\n        constant\r\n        returns (address)\r\n    {\r\n        return proposer[prospective];\r\n    }\r\n}\r\n",
  "sourcePath": "D:\\Projects\\Programming\\blockchain-medical-record\\contracts\\AgentRegistry.sol",
  "compiler": {
    "name": "solc",
    "version": "0.4.26+commit.4563c3fc.Emscripten.clang"
  },
  "schemaVersion": "3.4.4",
  "updatedAt": "2022-02-17T02:14:26.051Z",
  "devdoc": {
    "methods": {}
  },
  "userdoc": {
    "methods": {
      "propose(string)": {
        "notice": "constructor(\r string name,\r address contractAddr,\r string host\r ) public {}\r*"
      }
    }
  }
}