{
  "contractName": "Agent",
  "abi": [
    {
      "constant": true,
      "inputs": [
        {
          "name": "",
          "type": "uint256"
        }
      ],
      "name": "custodianEnabled",
      "outputs": [
        {
          "name": "",
          "type": "bool"
        }
      ],
      "payable": false,
      "stateMutability": "view",
      "type": "function"
    },
    {
      "constant": true,
      "inputs": [
        {
          "name": "",
          "type": "uint256"
        }
      ],
      "name": "custodians",
      "outputs": [
        {
          "name": "",
          "type": "address"
        }
      ],
      "payable": false,
      "stateMutability": "view",
      "type": "function"
    },
    {
      "constant": true,
      "inputs": [
        {
          "name": "",
          "type": "uint256"
        }
      ],
      "name": "relationships",
      "outputs": [
        {
          "name": "",
          "type": "address"
        }
      ],
      "payable": false,
      "stateMutability": "view",
      "type": "function"
    },
    {
      "constant": true,
      "inputs": [],
      "name": "agentEnabled",
      "outputs": [
        {
          "name": "",
          "type": "bool"
        }
      ],
      "payable": false,
      "stateMutability": "view",
      "type": "function"
    },
    {
      "constant": true,
      "inputs": [],
      "name": "agent",
      "outputs": [
        {
          "name": "",
          "type": "address"
        }
      ],
      "payable": false,
      "stateMutability": "view",
      "type": "function"
    },
    {
      "constant": false,
      "inputs": [
        {
          "name": "addr",
          "type": "address"
        }
      ],
      "name": "removeCustodian",
      "outputs": [],
      "payable": false,
      "stateMutability": "nonpayable",
      "type": "function"
    },
    {
      "constant": false,
      "inputs": [
        {
          "name": "addr",
          "type": "address"
        },
        {
          "name": "enable",
          "type": "bool"
        }
      ],
      "name": "enableCustodian",
      "outputs": [],
      "payable": false,
      "stateMutability": "nonpayable",
      "type": "function"
    },
    {
      "constant": false,
      "inputs": [
        {
          "name": "r",
          "type": "address"
        }
      ],
      "name": "addRelationship",
      "outputs": [],
      "payable": false,
      "stateMutability": "nonpayable",
      "type": "function"
    },
    {
      "constant": true,
      "inputs": [],
      "name": "getNumRelationships",
      "outputs": [
        {
          "name": "",
          "type": "uint256"
        }
      ],
      "payable": false,
      "stateMutability": "view",
      "type": "function"
    },
    {
      "constant": true,
      "inputs": [],
      "name": "getNumEnabledOwners",
      "outputs": [
        {
          "name": "",
          "type": "uint256"
        }
      ],
      "payable": false,
      "stateMutability": "view",
      "type": "function"
    },
    {
      "constant": true,
      "inputs": [],
      "name": "getNumCustodians",
      "outputs": [
        {
          "name": "",
          "type": "uint256"
        }
      ],
      "payable": false,
      "stateMutability": "view",
      "type": "function"
    }
  ],
  "bytecode": "0x608060405234801561001057600080fd5b506109b3806100206000396000f3006080604052600436106100af576000357c0100000000000000000000000000000000000000000000000000000000900463ffffffff1680630f12a66a146100b4578063108fd0cc146100f75780632299bda61461013c5780636ca9677a146101a957806379bda937146101f857806394aa27181461023b57806399d29e71146102a8578063c23a0d28146102d7578063e968177e14610302578063f5ff5c761461032d578063faea7b2c14610384575b600080fd5b3480156100c057600080fd5b506100f5600480360381019080803573ffffffffffffffffffffffffffffffffffffffff1690602001909291905050506103af565b005b34801561010357600080fd5b5061012260048036038101908080359060200190929190505050610656565b604051808215151515815260200191505060405180910390f35b34801561014857600080fd5b5061016760048036038101908080359060200190929190505050610689565b604051808273ffffffffffffffffffffffffffffffffffffffff1673ffffffffffffffffffffffffffffffffffffffff16815260200191505060405180910390f35b3480156101b557600080fd5b506101f6600480360381019080803573ffffffffffffffffffffffffffffffffffffffff1690602001909291908035151590602001909291905050506106c7565b005b34801561020457600080fd5b50610239600480360381019080803573ffffffffffffffffffffffffffffffffffffffff169060200190929190505050610797565b005b34801561024757600080fd5b5061026660048036038101908080359060200190929190505050610800565b604051808273ffffffffffffffffffffffffffffffffffffffff1673ffffffffffffffffffffffffffffffffffffffff16815260200191505060405180910390f35b3480156102b457600080fd5b506102bd61083e565b604051808215151515815260200191505060405180910390f35b3480156102e357600080fd5b506102ec610851565b6040518082815260200191505060405180910390f35b34801561030e57600080fd5b506103176108bd565b6040518082815260200191505060405180910390f35b34801561033957600080fd5b506103426108ca565b604051808273ffffffffffffffffffffffffffffffffffffffff1673ffffffffffffffffffffffffffffffffffffffff16815260200191505060405180910390f35b34801561039057600080fd5b506103996108ef565b6040518082815260200191505060405180910390f35b60008090505b6001805490508110156105ab576001818154811015156103d157fe5b9060005260206000200160009054906101000a900473ffffffffffffffffffffffffffffffffffffffff16600180830381548110151561040d57fe5b9060005260206000200160006101000a81548173ffffffffffffffffffffffffffffffffffffffff021916908373ffffffffffffffffffffffffffffffffffffffff16021790555060028181548110151561046457fe5b90600052602060002090602091828204019190069054906101000a900460ff1660026001830381548110151561049657fe5b90600052602060002090602091828204019190066101000a81548160ff0219169083151502179055508173ffffffffffffffffffffffffffffffffffffffff166001828154811015156104e557fe5b9060005260206000200160009054906101000a900473ffffffffffffffffffffffffffffffffffffffff1673ffffffffffffffffffffffffffffffffffffffff16141561059e5760018181548110151561053b57fe5b9060005260206000200160006101000a81549073ffffffffffffffffffffffffffffffffffffffff021916905560028181548110151561057757fe5b90600052602060002090602091828204019190066101000a81549060ff02191690556105ab565b80806001019150506103b5565b60026001600280549050038154811015156105c257fe5b90600052602060002090602091828204019190066101000a81549060ff02191690556001808080549050038154811015156105f957fe5b9060005260206000200160006101000a81549073ffffffffffffffffffffffffffffffffffffffff0219169055600280548091906001900361063b91906108fc565b5060018054809190600190036106519190610936565b505050565b60028181548110151561066557fe5b9060005260206000209060209182820401919006915054906101000a900460ff1681565b60018181548110151561069857fe5b906000526020600020016000915054906101000a900473ffffffffffffffffffffffffffffffffffffffff1681565b60008090505b600180549050811015610792578273ffffffffffffffffffffffffffffffffffffffff1660018281548110151561070057fe5b9060005260206000200160009054906101000a900473ffffffffffffffffffffffffffffffffffffffff1673ffffffffffffffffffffffffffffffffffffffff161415610785578160028281548110151561075757fe5b90600052602060002090602091828204019190066101000a81548160ff021916908315150217905550610792565b80806001019150506106cd565b505050565b60038190806001815401808255809150509060018203906000526020600020016000909192909190916101000a81548173ffffffffffffffffffffffffffffffffffffffff021916908373ffffffffffffffffffffffffffffffffffffffff1602179055505050565b60038181548110151561080f57fe5b906000526020600020016000915054906101000a900473ffffffffffffffffffffffffffffffffffffffff1681565b600060149054906101000a900460ff1681565b6000806000809150600090505b6002805490508110156108b55760028181548110151561087a57fe5b90600052602060002090602091828204019190069054906101000a900460ff16156108a85781806001019250505b808060010191505061085e565b819250505090565b6000600380549050905090565b6000809054906101000a900473ffffffffffffffffffffffffffffffffffffffff1681565b6000600180549050905090565b81548183558181111561093157601f016020900481601f016020900483600052602060002091820191016109309190610962565b5b505050565b81548183558181111561095d5781836000526020600020918201910161095c9190610962565b5b505050565b61098491905b80821115610980576000816000905550600101610968565b5090565b905600a165627a7a723058201eb1ceae2802d24a9155f1221b60f45ab7fa4971f8d0d9fb1acf06bc3fccfd880029",
  "source": "pragma solidity ^0.4.0;\r\n\r\ncontract Agent {\r\n    address public agent;\r\n    bool public agentEnabled;\r\n    address[] public custodians;\r\n    bool[] public custodianEnabled;\r\n    address[] public relationships;\r\n\r\n    modifier isOwner() {\r\n        //TODO: Finish owner logic\r\n        _;\r\n    }\r\n\r\n    //constructor() public {}\r\n\r\n    //function setAgent(address addr) public isOwner {}\r\n\r\n    //function enableAgent(bool enable) public isOwner {}\r\n\r\n    //function addCustodian(address addr) public isOwner {}\r\n\r\n    function removeCustodian(address addr) public isOwner {\r\n        for (uint256 i = 0; i < custodians.length; i++) {\r\n            custodians[i - 1] = custodians[i];\r\n            custodianEnabled[i - 1] = custodianEnabled[i];\r\n            if (custodians[i] == addr) {\r\n                delete custodians[i];\r\n                delete custodianEnabled[i];\r\n                break;\r\n            }\r\n        }\r\n\r\n        //decrement arrays by 1\r\n        //delete last element of both arrays.\r\n        delete custodianEnabled[custodianEnabled.length - 1];\r\n        delete custodians[custodians.length - 1];\r\n        custodianEnabled.length--;\r\n        custodians.length--;\r\n    }\r\n\r\n    function enableCustodian(address addr, bool enable) public {\r\n        for (uint256 i = 0; i < custodians.length; i++) {\r\n            if (custodians[i] == addr) {\r\n                custodianEnabled[i] = enable;\r\n                break;\r\n            }\r\n        }\r\n    }\r\n\r\n    function addRelationship(address r) public isOwner {\r\n        relationships.push(r);\r\n    }\r\n\r\n    function getNumRelationships() public constant returns (uint256) {\r\n        return relationships.length;\r\n    }\r\n\r\n    function getNumEnabledOwners() public constant returns (uint256) {\r\n        uint256 numEnabled = 0;\r\n        for (uint256 i = 0; i < custodianEnabled.length; i++) {\r\n            if (custodianEnabled[i]) {\r\n                numEnabled++;\r\n            }\r\n        }\r\n        return numEnabled;\r\n    }\r\n\r\n    function getNumCustodians() public constant returns (uint256) {\r\n        return custodians.length;\r\n    }\r\n}\r\n",
  "sourcePath": "D:\\Projects\\Programming\\blockchain-medical-record\\contracts\\Agent.sol",
  "compiler": {
    "name": "solc",
    "version": "0.4.26+commit.4563c3fc.Emscripten.clang"
  },
  "schemaVersion": "3.4.4",
  "updatedAt": "2022-02-17T02:14:25.931Z",
  "devdoc": {
    "methods": {}
  },
  "userdoc": {
    "methods": {}
  }
}