{
  "contractName": "AllAccessRelationship",
  "abi": [
    {
      "constant": true,
      "inputs": [],
      "name": "providerName",
      "outputs": [
        {
          "name": "",
          "type": "string"
        }
      ],
      "payable": false,
      "stateMutability": "view",
      "type": "function"
    },
    {
      "constant": true,
      "inputs": [],
      "name": "provider",
      "outputs": [
        {
          "name": "",
          "type": "address"
        }
      ],
      "payable": false,
      "stateMutability": "view",
      "type": "function"
    },
    {
      "constant": true,
      "inputs": [],
      "name": "patron",
      "outputs": [
        {
          "name": "",
          "type": "address"
        }
      ],
      "payable": false,
      "stateMutability": "view",
      "type": "function"
    },
    {
      "constant": true,
      "inputs": [
        {
          "name": "",
          "type": "address"
        }
      ],
      "name": "isViewer",
      "outputs": [
        {
          "name": "",
          "type": "bool"
        }
      ],
      "payable": false,
      "stateMutability": "view",
      "type": "function"
    },
    {
      "constant": true,
      "inputs": [
        {
          "name": "",
          "type": "uint256"
        }
      ],
      "name": "viewers",
      "outputs": [
        {
          "name": "",
          "type": "address"
        }
      ],
      "payable": false,
      "stateMutability": "view",
      "type": "function"
    }
  ],
  "bytecode": "0x608060405234801561001057600080fd5b506103ea806100206000396000f30060806040526004361061006c576000357c0100000000000000000000000000000000000000000000000000000000900463ffffffff168062dad7d414610071578063085d4883146101015780630ba32b27146101585780632bba6fb7146101af5780635155cb161461020a575b600080fd5b34801561007d57600080fd5b50610086610277565b6040518080602001828103825283818151815260200191508051906020019080838360005b838110156100c65780820151818401526020810190506100ab565b50505050905090810190601f1680156100f35780820380516001836020036101000a031916815260200191505b509250505060405180910390f35b34801561010d57600080fd5b50610116610315565b604051808273ffffffffffffffffffffffffffffffffffffffff1673ffffffffffffffffffffffffffffffffffffffff16815260200191505060405180910390f35b34801561016457600080fd5b5061016d61033b565b604051808273ffffffffffffffffffffffffffffffffffffffff1673ffffffffffffffffffffffffffffffffffffffff16815260200191505060405180910390f35b3480156101bb57600080fd5b506101f0600480360381019080803573ffffffffffffffffffffffffffffffffffffffff169060200190929190505050610360565b604051808215151515815260200191505060405180910390f35b34801561021657600080fd5b5061023560048036038101908080359060200190929190505050610380565b604051808273ffffffffffffffffffffffffffffffffffffffff1673ffffffffffffffffffffffffffffffffffffffff16815260200191505060405180910390f35b60028054600181600116156101000203166002900480601f01602080910402602001604051908101604052809291908181526020018280546001816001161561010002031660029004801561030d5780601f106102e25761010080835404028352916020019161030d565b820191906000526020600020905b8154815290600101906020018083116102f057829003601f168201915b505050505081565b600160009054906101000a900473ffffffffffffffffffffffffffffffffffffffff1681565b6000809054906101000a900473ffffffffffffffffffffffffffffffffffffffff1681565b60046020528060005260406000206000915054906101000a900460ff1681565b60038181548110151561038f57fe5b906000526020600020016000915054906101000a900473ffffffffffffffffffffffffffffffffffffffff16815600a165627a7a72305820ae59917412fb4eb6e1f2dfbbbd8ebbb7a7d3240718b43449deca370f83d850dc0029",
  "source": "pragma solidity ^0.4.0;\r\n\r\ncontract AllAccessRelationship {\r\n    address public patron;\r\n    address public provider;\r\n    string public providerName;\r\n\r\n    struct Viewer {\r\n        string name;\r\n        address addr;\r\n    }\r\n\r\n    address[] public viewers;\r\n    mapping(address => bool) public isViewer;\r\n    mapping(address => Viewer) viewerInfo;\r\n    mapping(string => address) viewerByName;\r\n\r\n    uint256 constant UINT256_MAX = ~uint256(0);\r\n\r\n    modifier isPatron() {\r\n        if (msg.sender != patron) revert();\r\n        _;\r\n    }\r\n\r\n    //function Relationship(address _provider) public {}\r\n\r\n    //function setProviderName(string name) public {}\r\n\r\n    //function addViewer(string name, address viewer) public isPatron {}\r\n\r\n    //function removeViewer(address viewer) public isPatron {}\r\n\r\n    //function getNumViewers() public constant returns (uint256) {}\r\n\r\n    //function getViewerByName(string name) public constant returns (address) {}\r\n\r\n    //function getViewerName(address addr) public constant returns (string) {}\r\n\r\n    //function terminate() public {}\r\n}\r\n",
  "sourcePath": "D:\\Projects\\Programming\\blockchain-medical-record\\contracts\\AllAccessRelationship.sol",
  "compiler": {
    "name": "solc",
    "version": "0.4.26+commit.4563c3fc.Emscripten.clang"
  },
  "schemaVersion": "3.4.4",
  "updatedAt": "2022-02-17T02:14:26.092Z",
  "devdoc": {
    "methods": {}
  },
  "userdoc": {
    "methods": {}
  }
}