{
  "contractName": "DeadmanSwitch",
  "abi": [
    {
      "constant": true,
      "inputs": [],
      "name": "lastTouch",
      "outputs": [
        {
          "name": "",
          "type": "uint256"
        }
      ],
      "payable": false,
      "stateMutability": "view",
      "type": "function"
    },
    {
      "constant": true,
      "inputs": [],
      "name": "timeout",
      "outputs": [
        {
          "name": "",
          "type": "uint256"
        }
      ],
      "payable": false,
      "stateMutability": "view",
      "type": "function"
    },
    {
      "constant": true,
      "inputs": [
        {
          "name": "",
          "type": "uint256"
        }
      ],
      "name": "relationships",
      "outputs": [
        {
          "name": "",
          "type": "address"
        }
      ],
      "payable": false,
      "stateMutability": "view",
      "type": "function"
    },
    {
      "constant": true,
      "inputs": [],
      "name": "agent",
      "outputs": [
        {
          "name": "",
          "type": "address"
        }
      ],
      "payable": false,
      "stateMutability": "view",
      "type": "function"
    },
    {
      "inputs": [],
      "payable": false,
      "stateMutability": "nonpayable",
      "type": "constructor"
    },
    {
      "constant": false,
      "inputs": [
        {
          "name": "addr",
          "type": "address"
        }
      ],
      "name": "setAgent",
      "outputs": [],
      "payable": false,
      "stateMutability": "nonpayable",
      "type": "function"
    },
    {
      "constant": false,
      "inputs": [
        {
          "name": "r",
          "type": "address"
        }
      ],
      "name": "addRelationship",
      "outputs": [],
      "payable": false,
      "stateMutability": "nonpayable",
      "type": "function"
    },
    {
      "constant": true,
      "inputs": [],
      "name": "getNumRelationships",
      "outputs": [
        {
          "name": "",
          "type": "uint256"
        }
      ],
      "payable": false,
      "stateMutability": "view",
      "type": "function"
    },
    {
      "constant": false,
      "inputs": [],
      "name": "touch",
      "outputs": [],
      "payable": false,
      "stateMutability": "nonpayable",
      "type": "function"
    },
    {
      "constant": false,
      "inputs": [
        {
          "name": "_timeout",
          "type": "uint256"
        }
      ],
      "name": "setTimeout",
      "outputs": [],
      "payable": false,
      "stateMutability": "nonpayable",
      "type": "function"
    },
    {
      "constant": true,
      "inputs": [],
      "name": "isAlive",
      "outputs": [
        {
          "name": "",
          "type": "bool"
        }
      ],
      "payable": false,
      "stateMutability": "view",
      "type": "function"
    }
  ],
  "bytecode": "0x608060405234801561001057600080fd5b50336000806101000a81548173ffffffffffffffffffffffffffffffffffffffff021916908373ffffffffffffffffffffffffffffffffffffffff1602179055506105cb806100606000396000f3006080604052600436106100a4576000357c0100000000000000000000000000000000000000000000000000000000900463ffffffff16806333403002146100a95780634136aa35146100d457806370dea79a1461010357806379bda9371461012e57806394aa271814610171578063a55526db146101de578063bcf685ed146101f5578063c58a34cc14610238578063e968177e14610265578063f5ff5c7614610290575b600080fd5b3480156100b557600080fd5b506100be6102e7565b6040518082815260200191505060405180910390f35b3480156100e057600080fd5b506100e96102ed565b604051808215151515815260200191505060405180910390f35b34801561010f57600080fd5b506101186102fe565b6040518082815260200191505060405180910390f35b34801561013a57600080fd5b5061016f600480360381019080803573ffffffffffffffffffffffffffffffffffffffff169060200190929190505050610304565b005b34801561017d57600080fd5b5061019c600480360381019080803590602001909291905050506103c8565b604051808273ffffffffffffffffffffffffffffffffffffffff1673ffffffffffffffffffffffffffffffffffffffff16815260200191505060405180910390f35b3480156101ea57600080fd5b506101f3610406565b005b34801561020157600080fd5b50610236600480360381019080803573ffffffffffffffffffffffffffffffffffffffff16906020019092919050505061046a565b005b34801561024457600080fd5b5061026360048036038101908080359060200190929190505050610508565b005b34801561027157600080fd5b5061027a61056d565b6040518082815260200191505060405180910390f35b34801561029c57600080fd5b506102a561057a565b604051808273ffffffffffffffffffffffffffffffffffffffff1673ffffffffffffffffffffffffffffffffffffffff16815260200191505060405180910390f35b60025481565b600060035460025401421115905090565b60035481565b6000809054906101000a900473ffffffffffffffffffffffffffffffffffffffff1673ffffffffffffffffffffffffffffffffffffffff163373ffffffffffffffffffffffffffffffffffffffff1614151561035f57600080fd5b60018190806001815401808255809150509060018203906000526020600020016000909192909190916101000a81548173ffffffffffffffffffffffffffffffffffffffff021916908373ffffffffffffffffffffffffffffffffffffffff1602179055505050565b6001818154811015156103d757fe5b906000526020600020016000915054906101000a900473ffffffffffffffffffffffffffffffffffffffff1681565b6000809054906101000a900473ffffffffffffffffffffffffffffffffffffffff1673ffffffffffffffffffffffffffffffffffffffff163373ffffffffffffffffffffffffffffffffffffffff1614151561046157600080fd5b42600281905550565b6000809054906101000a900473ffffffffffffffffffffffffffffffffffffffff1673ffffffffffffffffffffffffffffffffffffffff163373ffffffffffffffffffffffffffffffffffffffff161415156104c557600080fd5b806000806101000a81548173ffffffffffffffffffffffffffffffffffffffff021916908373ffffffffffffffffffffffffffffffffffffffff16021790555050565b6000809054906101000a900473ffffffffffffffffffffffffffffffffffffffff1673ffffffffffffffffffffffffffffffffffffffff163373ffffffffffffffffffffffffffffffffffffffff1614151561056357600080fd5b8060038190555050565b6000600180549050905090565b6000809054906101000a900473ffffffffffffffffffffffffffffffffffffffff16815600a165627a7a723058201076c5d7e4f077359c56ad9105e26364e219eb6d0216dc2bc4c84e02881431aa0029",
  "source": "pragma solidity ^0.4.0;\r\n\r\ncontract DeadmanSwitch {\r\n    address public agent;\r\n    address[] public relationships;\r\n    uint256 public lastTouch;\r\n    uint256 public timeout;\r\n\r\n    modifier isOwner() {\r\n        if (msg.sender != agent) revert();\r\n        _;\r\n    }\r\n\r\n    constructor() public {\r\n        agent = msg.sender;\r\n    }\r\n\r\n    function setAgent(address addr) public isOwner {\r\n        agent = addr;\r\n    }\r\n\r\n    function addRelationship(address r) public isOwner {\r\n        relationships.push(r);\r\n    }\r\n\r\n    function getNumRelationships() public constant returns (uint256) {\r\n        return relationships.length;\r\n    }\r\n\r\n    function touch() public isOwner {\r\n        lastTouch = now;\r\n    }\r\n\r\n    function setTimeout(uint256 _timeout) public isOwner {\r\n        timeout = _timeout;\r\n    }\r\n\r\n    function isAlive() public constant returns (bool) {\r\n        return now <= lastTouch + timeout;\r\n    }\r\n}\r\n",
  "sourcePath": "D:\\Projects\\Programming\\blockchain-medical-record\\contracts\\DeadmanSwitch.sol",
  "compiler": {
    "name": "solc",
    "version": "0.4.26+commit.4563c3fc.Emscripten.clang"
  },
  "schemaVersion": "3.4.4",
  "updatedAt": "2022-02-17T02:14:26.095Z",
  "devdoc": {
    "methods": {}
  },
  "userdoc": {
    "methods": {}
  }
}