{
  "contractName": "Relationship",
  "abi": [
    {
      "constant": true,
      "inputs": [],
      "name": "providerName",
      "outputs": [
        {
          "name": "",
          "type": "string"
        }
      ],
      "payable": false,
      "stateMutability": "view",
      "type": "function"
    },
    {
      "constant": true,
      "inputs": [],
      "name": "provider",
      "outputs": [
        {
          "name": "",
          "type": "address"
        }
      ],
      "payable": false,
      "stateMutability": "view",
      "type": "function"
    },
    {
      "constant": true,
      "inputs": [],
      "name": "patron",
      "outputs": [
        {
          "name": "",
          "type": "address"
        }
      ],
      "payable": false,
      "stateMutability": "view",
      "type": "function"
    },
    {
      "constant": true,
      "inputs": [],
      "name": "providerAddr",
      "outputs": [
        {
          "name": "",
          "type": "string"
        }
      ],
      "payable": false,
      "stateMutability": "view",
      "type": "function"
    },
    {
      "constant": true,
      "inputs": [
        {
          "name": "",
          "type": "address"
        }
      ],
      "name": "isViewer",
      "outputs": [
        {
          "name": "",
          "type": "bool"
        }
      ],
      "payable": false,
      "stateMutability": "view",
      "type": "function"
    },
    {
      "constant": false,
      "inputs": [
        {
          "name": "name",
          "type": "string"
        },
        {
          "name": "viewerGroup",
          "type": "uint256"
        },
        {
          "name": "viewer",
          "type": "address"
        },
        {
          "name": "provAddr",
          "type": "string"
        }
      ],
      "name": "addViewer",
      "outputs": [],
      "payable": false,
      "stateMutability": "nonpayable",
      "type": "function"
    },
    {
      "constant": false,
      "inputs": [
        {
          "name": "viewerGroup",
          "type": "uint256"
        },
        {
          "name": "viewer",
          "type": "address"
        }
      ],
      "name": "removeViewer",
      "outputs": [],
      "payable": false,
      "stateMutability": "nonpayable",
      "type": "function"
    },
    {
      "constant": true,
      "inputs": [],
      "name": "getNumViewerGroups",
      "outputs": [
        {
          "name": "",
          "type": "uint256"
        }
      ],
      "payable": false,
      "stateMutability": "view",
      "type": "function"
    },
    {
      "constant": true,
      "inputs": [
        {
          "name": "group",
          "type": "uint256"
        }
      ],
      "name": "getNumViewers",
      "outputs": [
        {
          "name": "",
          "type": "uint256"
        }
      ],
      "payable": false,
      "stateMutability": "view",
      "type": "function"
    },
    {
      "constant": true,
      "inputs": [
        {
          "name": "group",
          "type": "uint256"
        },
        {
          "name": "index",
          "type": "uint256"
        }
      ],
      "name": "getViewer",
      "outputs": [
        {
          "name": "",
          "type": "address"
        }
      ],
      "payable": false,
      "stateMutability": "view",
      "type": "function"
    },
    {
      "constant": true,
      "inputs": [
        {
          "name": "name",
          "type": "string"
        }
      ],
      "name": "getViewerByName",
      "outputs": [
        {
          "name": "",
          "type": "address"
        }
      ],
      "payable": false,
      "stateMutability": "view",
      "type": "function"
    },
    {
      "constant": true,
      "inputs": [
        {
          "name": "addr",
          "type": "address"
        }
      ],
      "name": "getViewerName",
      "outputs": [
        {
          "name": "",
          "type": "string"
        }
      ],
      "payable": false,
      "stateMutability": "view",
      "type": "function"
    },
    {
      "constant": false,
      "inputs": [],
      "name": "terminate",
      "outputs": [],
      "payable": false,
      "stateMutability": "nonpayable",
      "type": "function"
    }
  ],
  "bytecode": "0x608060405234801561001057600080fd5b50611119806100206000396000f3006080604052600436106100c4576000357c0100000000000000000000000000000000000000000000000000000000900463ffffffff168062dad7d4146100c9578063019d8d5f14610159578063085d4883146102325780630ba32b27146102895780630c08bf88146102e0578063231505bd146102f75780632a7a832d146103875780632bba6fb7146103c85780632f35de6114610423578063322eb71d1461044e5780637e26ea631461050a578063bc1d708714610581578063e267eea01461062a575b600080fd5b3480156100d557600080fd5b506100de610677565b6040518080602001828103825283818151815260200191508051906020019080838360005b8381101561011e578082015181840152602081019050610103565b50505050905090810190601f16801561014b5780820380516001836020036101000a031916815260200191505b509250505060405180910390f35b34801561016557600080fd5b50610230600480360381019080803590602001908201803590602001908080601f016020809104026020016040519081016040528093929190818152602001838380828437820191505050505050919291929080359060200190929190803573ffffffffffffffffffffffffffffffffffffffff169060200190929190803590602001908201803590602001908080601f0160208091040260200160405190810160405280939291908181526020018383808284378201915050505050509192919290505050610715565b005b34801561023e57600080fd5b50610247610986565b604051808273ffffffffffffffffffffffffffffffffffffffff1673ffffffffffffffffffffffffffffffffffffffff16815260200191505060405180910390f35b34801561029557600080fd5b5061029e6109ac565b604051808273ffffffffffffffffffffffffffffffffffffffff1673ffffffffffffffffffffffffffffffffffffffff16815260200191505060405180910390f35b3480156102ec57600080fd5b506102f56109d1565b005b34801561030357600080fd5b5061030c610a45565b6040518080602001828103825283818151815260200191508051906020019080838360005b8381101561034c578082015181840152602081019050610331565b50505050905090810190601f1680156103795780820380516001836020036101000a031916815260200191505b509250505060405180910390f35b34801561039357600080fd5b506103b260048036038101908080359060200190929190505050610ae3565b6040518082815260200191505060405180910390f35b3480156103d457600080fd5b50610409600480360381019080803573ffffffffffffffffffffffffffffffffffffffff169060200190929190505050610b09565b604051808215151515815260200191505060405180910390f35b34801561042f57600080fd5b50610438610b29565b6040518082815260200191505060405180910390f35b34801561045a57600080fd5b5061048f600480360381019080803573ffffffffffffffffffffffffffffffffffffffff169060200190929190505050610b36565b6040518080602001828103825283818151815260200191508051906020019080838360005b838110156104cf5780820151818401526020810190506104b4565b50505050905090810190601f1680156104fc5780820380516001836020036101000a031916815260200191505b509250505060405180910390f35b34801561051657600080fd5b5061053f6004803603810190808035906020019092919080359060200190929190505050610c1a565b604051808273ffffffffffffffffffffffffffffffffffffffff1673ffffffffffffffffffffffffffffffffffffffff16815260200191505060405180910390f35b34801561058d57600080fd5b506105e8600480360381019080803590602001908201803590602001908080601f0160208091040260200160405190810160405280939291908181526020018383808284378201915050505050509192919290505050610c75565b604051808273ffffffffffffffffffffffffffffffffffffffff1673ffffffffffffffffffffffffffffffffffffffff16815260200191505060405180910390f35b34801561063657600080fd5b5061067560048036038101908080359060200190929190803573ffffffffffffffffffffffffffffffffffffffff169060200190929190505050610d0a565b005b60038054600181600116156101000203166002900480601f01602080910402602001604051908101604052809291908181526020018280546001816001161561010002031660029004801561070d5780601f106106e25761010080835404028352916020019161070d565b820191906000526020600020905b8154815290600101906020018083116106f057829003601f168201915b505050505081565b6000809054906101000a900473ffffffffffffffffffffffffffffffffffffffff1673ffffffffffffffffffffffffffffffffffffffff163373ffffffffffffffffffffffffffffffffffffffff1614151561077057600080fd5b6001600560008473ffffffffffffffffffffffffffffffffffffffff1673ffffffffffffffffffffffffffffffffffffffff16815260200190815260200160002060006101000a81548160ff0219169083151502179055506004838154811015156107d757fe5b906000526020600020018290806001815401808255809150509060018203906000526020600020016000909192909190916101000a81548173ffffffffffffffffffffffffffffffffffffffff021916908373ffffffffffffffffffffffffffffffffffffffff16021790555050816007856040518082805190602001908083835b60208310151561087e5780518252602082019150602081019050602083039250610859565b6001836020036101000a038019825116818451168082178552505050505050905001915050908152602001604051809103902060006101000a81548173ffffffffffffffffffffffffffffffffffffffff021916908373ffffffffffffffffffffffffffffffffffffffff160217905550604080519081016040528085815260200182815250600660008473ffffffffffffffffffffffffffffffffffffffff1673ffffffffffffffffffffffffffffffffffffffff168152602001908152602001600020600082015181600001908051906020019061095f929190611000565b50602082015181600101908051906020019061097c929190611000565b5090505050505050565b600160009054906101000a900473ffffffffffffffffffffffffffffffffffffffff1681565b6000809054906101000a900473ffffffffffffffffffffffffffffffffffffffff1681565b6000809054906101000a900473ffffffffffffffffffffffffffffffffffffffff1673ffffffffffffffffffffffffffffffffffffffff163373ffffffffffffffffffffffffffffffffffffffff16141515610a2c57600080fd5b3373ffffffffffffffffffffffffffffffffffffffff16ff5b60028054600181600116156101000203166002900480601f016020809104026020016040519081016040528092919081815260200182805460018160011615610100020316600290048015610adb5780601f10610ab057610100808354040283529160200191610adb565b820191906000526020600020905b815481529060010190602001808311610abe57829003601f168201915b505050505081565b6000600482815481101515610af457fe5b90600052602060002001805490509050919050565b60056020528060005260406000206000915054906101000a900460ff1681565b6000600480549050905090565b6060600660008373ffffffffffffffffffffffffffffffffffffffff1673ffffffffffffffffffffffffffffffffffffffff1681526020019081526020016000206000018054600181600116156101000203166002900480601f016020809104026020016040519081016040528092919081815260200182805460018160011615610100020316600290048015610c0e5780601f10610be357610100808354040283529160200191610c0e565b820191906000526020600020905b815481529060010190602001808311610bf157829003601f168201915b50505050509050919050565b6000600483815481101515610c2b57fe5b9060005260206000200182815481101515610c4257fe5b9060005260206000200160009054906101000a900473ffffffffffffffffffffffffffffffffffffffff16905092915050565b60006007826040518082805190602001908083835b602083101515610caf5780518252602082019150602081019050602083039250610c8a565b6001836020036101000a038019825116818451168082178552505050505050905001915050908152602001604051809103902060009054906101000a900473ffffffffffffffffffffffffffffffffffffffff169050919050565b60008060009054906101000a900473ffffffffffffffffffffffffffffffffffffffff1673ffffffffffffffffffffffffffffffffffffffff163373ffffffffffffffffffffffffffffffffffffffff16141515610d6757600080fd5b600560008373ffffffffffffffffffffffffffffffffffffffff1673ffffffffffffffffffffffffffffffffffffffff16815260200190815260200160002060006101000a81549060ff0219169055600090505b600483815481101515610dca57fe5b9060005260206000200180549050811015610ec4578173ffffffffffffffffffffffffffffffffffffffff16600484815481101515610e0557fe5b9060005260206000200182815481101515610e1c57fe5b9060005260206000200160009054906101000a900473ffffffffffffffffffffffffffffffffffffffff1673ffffffffffffffffffffffffffffffffffffffff161415610eb757600483815481101515610e7257fe5b9060005260206000200181815481101515610e8957fe5b9060005260206000200160006101000a81549073ffffffffffffffffffffffffffffffffffffffff02191690555b8080600101915050610dbb565b6007600660008473ffffffffffffffffffffffffffffffffffffffff1673ffffffffffffffffffffffffffffffffffffffff1681526020019081526020016000206000016040518082805460018160011615610100020316600290048015610f635780601f10610f41576101008083540402835291820191610f63565b820191906000526020600020905b815481529060010190602001808311610f4f575b5050915050908152602001604051809103902060006101000a81549073ffffffffffffffffffffffffffffffffffffffff0219169055600660008373ffffffffffffffffffffffffffffffffffffffff1673ffffffffffffffffffffffffffffffffffffffff16815260200190815260200160002060008082016000610fe99190611080565b600182016000610ff99190611080565b5050505050565b828054600181600116156101000203166002900490600052602060002090601f016020900481019282601f1061104157805160ff191683800117855561106f565b8280016001018555821561106f579182015b8281111561106e578251825591602001919060010190611053565b5b50905061107c91906110c8565b5090565b50805460018160011615610100020316600290046000825580601f106110a657506110c5565b601f0160209004906000526020600020908101906110c491906110c8565b5b50565b6110ea91905b808211156110e65760008160009055506001016110ce565b5090565b905600a165627a7a723058204616e3cdb6fbf0a2c2f8f23167656cce86cf9b3abe3661a9f96c6fab28aec5250029",
  "source": "pragma solidity ^0.4.0;\r\n\r\ncontract Relationship {\r\n    address public patron;\r\n    address public provider;\r\n    string public providerAddr;\r\n    string public providerName;\r\n\r\n    struct Viewer {\r\n        string name;\r\n        string providerAddr;\r\n    }\r\n\r\n    address[][] viewerGroups;\r\n    mapping(address => bool) public isViewer;\r\n    mapping(address => Viewer) viewerInfo;\r\n    mapping(string => address) viewerByName;\r\n\r\n    uint256 constant UINT256_MAX = ~uint256(0);\r\n\r\n    modifier isPatron() {\r\n        if (msg.sender != patron) revert();\r\n        _;\r\n    }\r\n\r\n    //constructor(address _provider) public {}\r\n\r\n    //function setProviderAddress(string addr) public {}\r\n\r\n    //function setProviderName(string name) public {}\r\n\r\n    //function addViewerGroup() public isPatron {}\r\n\r\n    //function removeViewerGroup(uint256 viewerGroup) public isPatron {}\r\n\r\n    function addViewer(\r\n        string name,\r\n        uint256 viewerGroup,\r\n        address viewer,\r\n        string provAddr\r\n    ) public isPatron {\r\n        isViewer[viewer] = true;\r\n        viewerGroups[viewerGroup].push(viewer);\r\n        viewerByName[name] = viewer;\r\n        viewerInfo[viewer] = Viewer({name: name, providerAddr: provAddr});\r\n    }\r\n\r\n    function removeViewer(uint256 viewerGroup, address viewer) public isPatron {\r\n        delete isViewer[viewer];\r\n        for (uint256 i = 0; i < viewerGroups[viewerGroup].length; i++) {\r\n            if (viewerGroups[viewerGroup][i] == viewer) {\r\n                delete viewerGroups[viewerGroup][i];\r\n            }\r\n        }\r\n        delete viewerByName[viewerInfo[viewer].name];\r\n        delete viewerInfo[viewer];\r\n    }\r\n\r\n    function getNumViewerGroups() public constant returns (uint256) {\r\n        return viewerGroups.length;\r\n    }\r\n\r\n    function getNumViewers(uint256 group) public constant returns (uint256) {\r\n        return viewerGroups[group].length;\r\n    }\r\n\r\n    function getViewer(uint256 group, uint256 index)\r\n        public\r\n        constant\r\n        returns (address)\r\n    {\r\n        return viewerGroups[group][index];\r\n    }\r\n\r\n    function getViewerByName(string name) public constant returns (address) {\r\n        return viewerByName[name];\r\n    }\r\n\r\n    function getViewerName(address addr) public constant returns (string) {\r\n        return viewerInfo[addr].name;\r\n    }\r\n\r\n    function terminate() public {\r\n        require(msg.sender == patron);\r\n        selfdestruct(msg.sender);\r\n    }\r\n}\r\n",
  "sourcePath": "D:\\Projects\\Programming\\blockchain-medical-record\\contracts\\Relationship.sol",
  "compiler": {
    "name": "solc",
    "version": "0.4.26+commit.4563c3fc.Emscripten.clang"
  },
  "schemaVersion": "3.4.4",
  "updatedAt": "2022-02-17T02:14:26.106Z",
  "devdoc": {
    "methods": {}
  },
  "userdoc": {
    "methods": {}
  }
}